{
	"BEP20_flat.sol": {
		"BEP20Token": {
			"abi": [
				{
					"inputs": [],
					"payable": false,
					"stateMutability": "nonpayable",
					"type": "constructor"
				},
				{
					"anonymous": false,
					"inputs": [
						{
							"indexed": true,
							"internalType": "address",
							"name": "owner",
							"type": "address"
						},
						{
							"indexed": true,
							"internalType": "address",
							"name": "spender",
							"type": "address"
						},
						{
							"indexed": false,
							"internalType": "uint256",
							"name": "value",
							"type": "uint256"
						}
					],
					"name": "Approval",
					"type": "event"
				},
				{
					"anonymous": false,
					"inputs": [
						{
							"indexed": true,
							"internalType": "address",
							"name": "previousOwner",
							"type": "address"
						},
						{
							"indexed": true,
							"internalType": "address",
							"name": "newOwner",
							"type": "address"
						}
					],
					"name": "OwnershipTransferred",
					"type": "event"
				},
				{
					"anonymous": false,
					"inputs": [
						{
							"indexed": true,
							"internalType": "address",
							"name": "from",
							"type": "address"
						},
						{
							"indexed": true,
							"internalType": "address",
							"name": "to",
							"type": "address"
						},
						{
							"indexed": false,
							"internalType": "uint256",
							"name": "value",
							"type": "uint256"
						}
					],
					"name": "Transfer",
					"type": "event"
				},
				{
					"constant": true,
					"inputs": [
						{
							"internalType": "address",
							"name": "owner",
							"type": "address"
						},
						{
							"internalType": "address",
							"name": "spender",
							"type": "address"
						}
					],
					"name": "allowance",
					"outputs": [
						{
							"internalType": "uint256",
							"name": "",
							"type": "uint256"
						}
					],
					"payable": false,
					"stateMutability": "view",
					"type": "function"
				},
				{
					"constant": false,
					"inputs": [
						{
							"internalType": "address",
							"name": "spender",
							"type": "address"
						},
						{
							"internalType": "uint256",
							"name": "amount",
							"type": "uint256"
						}
					],
					"name": "approve",
					"outputs": [
						{
							"internalType": "bool",
							"name": "",
							"type": "bool"
						}
					],
					"payable": false,
					"stateMutability": "nonpayable",
					"type": "function"
				},
				{
					"constant": true,
					"inputs": [
						{
							"internalType": "address",
							"name": "account",
							"type": "address"
						}
					],
					"name": "balanceOf",
					"outputs": [
						{
							"internalType": "uint256",
							"name": "",
							"type": "uint256"
						}
					],
					"payable": false,
					"stateMutability": "view",
					"type": "function"
				},
				{
					"constant": true,
					"inputs": [],
					"name": "decimals",
					"outputs": [
						{
							"internalType": "uint8",
							"name": "",
							"type": "uint8"
						}
					],
					"payable": false,
					"stateMutability": "view",
					"type": "function"
				},
				{
					"constant": false,
					"inputs": [
						{
							"internalType": "address",
							"name": "spender",
							"type": "address"
						},
						{
							"internalType": "uint256",
							"name": "subtractedValue",
							"type": "uint256"
						}
					],
					"name": "decreaseAllowance",
					"outputs": [
						{
							"internalType": "bool",
							"name": "",
							"type": "bool"
						}
					],
					"payable": false,
					"stateMutability": "nonpayable",
					"type": "function"
				},
				{
					"constant": true,
					"inputs": [],
					"name": "getOwner",
					"outputs": [
						{
							"internalType": "address",
							"name": "",
							"type": "address"
						}
					],
					"payable": false,
					"stateMutability": "view",
					"type": "function"
				},
				{
					"constant": false,
					"inputs": [
						{
							"internalType": "address",
							"name": "spender",
							"type": "address"
						},
						{
							"internalType": "uint256",
							"name": "addedValue",
							"type": "uint256"
						}
					],
					"name": "increaseAllowance",
					"outputs": [
						{
							"internalType": "bool",
							"name": "",
							"type": "bool"
						}
					],
					"payable": false,
					"stateMutability": "nonpayable",
					"type": "function"
				},
				{
					"constant": false,
					"inputs": [
						{
							"internalType": "uint256",
							"name": "amount",
							"type": "uint256"
						}
					],
					"name": "mint",
					"outputs": [
						{
							"internalType": "bool",
							"name": "",
							"type": "bool"
						}
					],
					"payable": false,
					"stateMutability": "nonpayable",
					"type": "function"
				},
				{
					"constant": true,
					"inputs": [],
					"name": "name",
					"outputs": [
						{
							"internalType": "string",
							"name": "",
							"type": "string"
						}
					],
					"payable": false,
					"stateMutability": "view",
					"type": "function"
				},
				{
					"constant": true,
					"inputs": [],
					"name": "owner",
					"outputs": [
						{
							"internalType": "address",
							"name": "",
							"type": "address"
						}
					],
					"payable": false,
					"stateMutability": "view",
					"type": "function"
				},
				{
					"constant": false,
					"inputs": [],
					"name": "renounceOwnership",
					"outputs": [],
					"payable": false,
					"stateMutability": "nonpayable",
					"type": "function"
				},
				{
					"constant": true,
					"inputs": [],
					"name": "symbol",
					"outputs": [
						{
							"internalType": "string",
							"name": "",
							"type": "string"
						}
					],
					"payable": false,
					"stateMutability": "view",
					"type": "function"
				},
				{
					"constant": true,
					"inputs": [],
					"name": "totalSupply",
					"outputs": [
						{
							"internalType": "uint256",
							"name": "",
							"type": "uint256"
						}
					],
					"payable": false,
					"stateMutability": "view",
					"type": "function"
				},
				{
					"constant": false,
					"inputs": [
						{
							"internalType": "address",
							"name": "recipient",
							"type": "address"
						},
						{
							"internalType": "uint256",
							"name": "amount",
							"type": "uint256"
						}
					],
					"name": "transfer",
					"outputs": [
						{
							"internalType": "bool",
							"name": "",
							"type": "bool"
						}
					],
					"payable": false,
					"stateMutability": "nonpayable",
					"type": "function"
				},
				{
					"constant": false,
					"inputs": [
						{
							"internalType": "address",
							"name": "sender",
							"type": "address"
						},
						{
							"internalType": "address",
							"name": "recipient",
							"type": "address"
						},
						{
							"internalType": "uint256",
							"name": "amount",
							"type": "uint256"
						}
					],
					"name": "transferFrom",
					"outputs": [
						{
							"internalType": "bool",
							"name": "",
							"type": "bool"
						}
					],
					"payable": false,
					"stateMutability": "nonpayable",
					"type": "function"
				},
				{
					"constant": false,
					"inputs": [
						{
							"internalType": "address",
							"name": "newOwner",
							"type": "address"
						}
					],
					"name": "transferOwnership",
					"outputs": [],
					"payable": false,
					"stateMutability": "nonpayable",
					"type": "function"
				}
			],
			"devdoc": {
				"methods": {
					"allowance(address,address)": {
						"details": "See {BEP20-allowance}."
					},
					"approve(address,uint256)": {
						"details": "See {BEP20-approve}.    * Requirements:    * - `spender` cannot be the zero address."
					},
					"balanceOf(address)": {
						"details": "See {BEP20-balanceOf}."
					},
					"decimals()": {
						"details": "Returns the token decimals."
					},
					"decreaseAllowance(address,uint256)": {
						"details": "Atomically decreases the allowance granted to `spender` by the caller.    * This is an alternative to {approve} that can be used as a mitigation for problems described in {BEP20-approve}.    * Emits an {Approval} event indicating the updated allowance.    * Requirements:    * - `spender` cannot be the zero address. - `spender` must have allowance for the caller of at least `subtractedValue`."
					},
					"getOwner()": {
						"details": "Returns the bep token owner."
					},
					"increaseAllowance(address,uint256)": {
						"details": "Atomically increases the allowance granted to `spender` by the caller.    * This is an alternative to {approve} that can be used as a mitigation for problems described in {BEP20-approve}.    * Emits an {Approval} event indicating the updated allowance.    * Requirements:    * - `spender` cannot be the zero address."
					},
					"mint(uint256)": {
						"details": "Creates `amount` tokens and assigns them to `msg.sender`, increasing the total supply.    * Requirements    * - `msg.sender` must be the token owner"
					},
					"name()": {
						"details": "Returns the token name."
					},
					"owner()": {
						"details": "Returns the address of the current owner."
					},
					"renounceOwnership()": {
						"details": "Leaves the contract without owner. It will not be possible to call `onlyOwner` functions anymore. Can only be called by the current owner.    * NOTE: Renouncing ownership will leave the contract without an owner, thereby removing any functionality that is only available to the owner."
					},
					"symbol()": {
						"details": "Returns the token symbol."
					},
					"totalSupply()": {
						"details": "See {BEP20-totalSupply}."
					},
					"transfer(address,uint256)": {
						"details": "See {BEP20-transfer}.    * Requirements:    * - `recipient` cannot be the zero address. - the caller must have a balance of at least `amount`."
					},
					"transferFrom(address,address,uint256)": {
						"details": "See {BEP20-transferFrom}.    * Emits an {Approval} event indicating the updated allowance. This is not required by the EIP. See the note at the beginning of {BEP20};    * Requirements: - `sender` and `recipient` cannot be the zero address. - `sender` must have a balance of at least `amount`. - the caller must have allowance for `sender`'s tokens of at least `amount`."
					},
					"transferOwnership(address)": {
						"details": "Transfers ownership of the contract to a new account (`newOwner`). Can only be called by the current owner."
					}
				}
			},
			"evm": {
				"assembly": "    /* \"BEP20_flat.sol\":11342:19191  contract BEP20Token is Context, IBEP20, Ownable {\r... */\n  mstore(0x40, 0x80)\n    /* \"BEP20_flat.sol\":11672:11948  constructor() public {\r... */\n  callvalue\n    /* \"--CODEGEN--\":8:17   */\n  dup1\n    /* \"--CODEGEN--\":5:7   */\n  iszero\n  tag_1\n  jumpi\n    /* \"--CODEGEN--\":30:31   */\n  0x00\n    /* \"--CODEGEN--\":27:28   */\n  dup1\n    /* \"--CODEGEN--\":20:32   */\n  revert\n    /* \"--CODEGEN--\":5:7   */\ntag_1:\n  pop\n    /* \"BEP20_flat.sol\":9851:9868  address msgSender */\n  0x00\n    /* \"BEP20_flat.sol\":9871:9883  _msgSender() */\n  tag_7\n  sub(shl(0xe0, 0x01), 0x01)\n    /* \"BEP20_flat.sol\":9871:9881  _msgSender */\n  tag_8\n    /* \"BEP20_flat.sol\":9871:9883  _msgSender() */\n  and\n  jump\t// in\ntag_7:\n    /* \"BEP20_flat.sol\":9890:9896  _owner */\n  0x00\n    /* \"BEP20_flat.sol\":9890:9908  _owner = msgSender */\n  dup1\n  sload\n  not(sub(shl(0xa0, 0x01), 0x01))\n  and\n  sub(shl(0xa0, 0x01), 0x01)\n  dup4\n  and\n  swap1\n  dup2\n  or\n  dup3\n  sstore\n    /* \"BEP20_flat.sol\":9920:9963  OwnershipTransferred(address(0), msgSender) */\n  mload(0x40)\n    /* \"BEP20_flat.sol\":9890:9908  _owner = msgSender */\n  swap3\n  swap4\n  pop\n  swap2\n    /* \"BEP20_flat.sol\":9920:9963  OwnershipTransferred(address(0), msgSender) */\n  0x8be0079c531659141344cd1fd0a4f28419497f9722a3daafe3b4186f6b6457e0\n  swap1\n    /* \"BEP20_flat.sol\":9890:9896  _owner */\n  dup3\n  swap1\n    /* \"BEP20_flat.sol\":9920:9963  OwnershipTransferred(address(0), msgSender) */\n  log3\n    /* \"BEP20_flat.sol\":9820:9969  constructor () internal {\r... */\n  pop\n    /* \"BEP20_flat.sol\":11700:11743  _name = \"Food And Beverage İndustry Token\" */\n  mload(0x40)\n  dup1\n  0x60\n  add\n  0x40\n  mstore\n  dup1\n  0x21\n  dup2\n  mstore\n  0x20\n  add\n  data_4aa6c0511fbffe536dac965598915da4e23ce28633288b9805c072bc51130491\n  0x21\n  swap2\n  codecopy\n  dup1\n  mload\n  tag_10\n  swap2\n    /* \"BEP20_flat.sol\":11700:11705  _name */\n  0x06\n  swap2\n    /* \"BEP20_flat.sol\":11700:11743  _name = \"Food And Beverage İndustry Token\" */\n  0x20\n  swap1\n  swap2\n  add\n  swap1\n  tag_11\n  jump\t// in\ntag_10:\n  pop\n    /* \"BEP20_flat.sol\":11750:11767  _symbol = \"FABİ\" */\n  0x40\n  dup1\n  mload\n  dup1\n  dup3\n  add\n  swap1\n  swap2\n  mstore\n  0x05\n  dup1\n  dup3\n  mstore\n  shl(0xdc, 0x0464142c4b)\n  0x20\n  swap1\n  swap3\n  add\n  swap2\n  dup3\n  mstore\n  tag_12\n  swap2\n  dup2\n  tag_11\n  jump\t// in\ntag_12:\n  pop\n    /* \"BEP20_flat.sol\":11774:11783  _decimals */\n  0x04\n    /* \"BEP20_flat.sol\":11774:11788  _decimals = 18 */\n  dup1\n  sload\n  not(0xff)\n  and\n    /* \"BEP20_flat.sol\":11786:11788  18 */\n  0x12\n    /* \"BEP20_flat.sol\":11774:11788  _decimals = 18 */\n  or\n  swap1\n  sstore\n    /* \"BEP20_flat.sol\":11810:11839  10000000000000000000000000000 */\n  0x204fce5e3e25026110000000\n    /* \"BEP20_flat.sol\":11795:11807  _totalSupply */\n  0x03\n    /* \"BEP20_flat.sol\":11795:11839  _totalSupply = 10000000000000000000000000000 */\n  dup2\n  swap1\n  sstore\n    /* \"BEP20_flat.sol\":11856:11866  msg.sender */\n  caller\n    /* \"BEP20_flat.sol\":11774:11783  _decimals */\n  0x00\n    /* \"BEP20_flat.sol\":11846:11867  _balances[msg.sender] */\n  dup2\n  dup2\n  mstore\n    /* \"BEP20_flat.sol\":11774:11788  _decimals = 18 */\n  0x01\n    /* \"BEP20_flat.sol\":11846:11867  _balances[msg.sender] */\n  0x20\n  swap1\n  dup2\n  mstore\n  0x40\n  dup1\n  dup4\n  keccak256\n    /* \"BEP20_flat.sol\":11846:11882  _balances[msg.sender] = _totalSupply */\n  dup6\n  swap1\n  sstore\n    /* \"BEP20_flat.sol\":11896:11942  Transfer(address(0), msg.sender, _totalSupply) */\n  dup1\n  mload\n  swap5\n  dup6\n  mstore\n  mload\n    /* \"BEP20_flat.sol\":11856:11866  msg.sender */\n  swap3\n  swap4\n    /* \"BEP20_flat.sol\":11774:11783  _decimals */\n  swap2\n  swap3\n    /* \"BEP20_flat.sol\":11896:11942  Transfer(address(0), msg.sender, _totalSupply) */\n  0xddf252ad1be2c89b69c2b068fc378daa952ba7f163c4a11628f55a4df523b3ef\n  swap3\n  dup2\n  swap1\n  sub\n  swap1\n  swap2\n  add\n  swap1\n  log3\n    /* \"BEP20_flat.sol\":11342:19191  contract BEP20Token is Context, IBEP20, Ownable {\r... */\n  jump(tag_13)\n    /* \"BEP20_flat.sol\":3739:3831  function _msgSender() internal view returns (address payable) {\r... */\ntag_8:\n    /* \"BEP20_flat.sol\":3815:3825  msg.sender */\n  caller\n    /* \"BEP20_flat.sol\":3739:3831  function _msgSender() internal view returns (address payable) {\r... */\ntag_14:\n  swap1\n  jump\t// out\n    /* \"BEP20_flat.sol\":11342:19191  contract BEP20Token is Context, IBEP20, Ownable {\r... */\ntag_11:\n  dup3\n  dup1\n  sload\n  0x01\n  dup2\n  0x01\n  and\n  iszero\n  0x0100\n  mul\n  sub\n  and\n  0x02\n  swap1\n  div\n  swap1\n  0x00\n  mstore\n  keccak256(0x00, 0x20)\n  swap1\n  0x1f\n  add\n  0x20\n  swap1\n  div\n  dup2\n  add\n  swap3\n  dup3\n  0x1f\n  lt\n  tag_16\n  jumpi\n  dup1\n  mload\n  not(0xff)\n  and\n  dup4\n  dup1\n  add\n  or\n  dup6\n  sstore\n  jump(tag_18)\ntag_16:\n  dup3\n  dup1\n  add\n  0x01\n  add\n  dup6\n  sstore\n  dup3\n  iszero\n  tag_18\n  jumpi\n  swap2\n  dup3\n  add\ntag_17:\n  dup3\n  dup2\n  gt\n  iszero\n  tag_18\n  jumpi\n  dup3\n  mload\n  dup3\n  sstore\n  swap2\n  0x20\n  add\n  swap2\n  swap1\n  0x01\n  add\n  swap1\n  jump(tag_17)\ntag_18:\n  pop\n  tag_19\n  swap3\n  swap2\n  pop\n  tag_20\n  jump\t// in\ntag_19:\n  pop\n  swap1\n  jump\t// out\ntag_20:\n  tag_14\n  swap2\n  swap1\ntag_22:\n  dup1\n  dup3\n  gt\n  iszero\n  tag_19\n  jumpi\n  0x00\n  dup2\n  sstore\n  0x01\n  add\n  jump(tag_22)\ntag_13:\n  dataSize(sub_0)\n  dup1\n  dataOffset(sub_0)\n  0x00\n  codecopy\n  0x00\n  return\nstop\ndata_4aa6c0511fbffe536dac965598915da4e23ce28633288b9805c072bc51130491 466f6f6420416e6420426576657261676520c4b06e64757374727920546f6b656e\n\nsub_0: assembly {\n        /* \"BEP20_flat.sol\":11342:19191  contract BEP20Token is Context, IBEP20, Ownable {\r... */\n      mstore(0x40, 0x80)\n      callvalue\n        /* \"--CODEGEN--\":8:17   */\n      dup1\n        /* \"--CODEGEN--\":5:7   */\n      iszero\n      tag_1\n      jumpi\n        /* \"--CODEGEN--\":30:31   */\n      0x00\n        /* \"--CODEGEN--\":27:28   */\n      dup1\n        /* \"--CODEGEN--\":20:32   */\n      revert\n        /* \"--CODEGEN--\":5:7   */\n    tag_1:\n        /* \"BEP20_flat.sol\":11342:19191  contract BEP20Token is Context, IBEP20, Ownable {\r... */\n      pop\n      jumpi(tag_2, lt(calldatasize, 0x04))\n      shr(0xe0, calldataload(0x00))\n      dup1\n      0x893d20e8\n      gt\n      tag_19\n      jumpi\n      dup1\n      0xa457c2d7\n      gt\n      tag_20\n      jumpi\n      dup1\n      0xa457c2d7\n      eq\n      tag_15\n      jumpi\n      dup1\n      0xa9059cbb\n      eq\n      tag_16\n      jumpi\n      dup1\n      0xdd62ed3e\n      eq\n      tag_17\n      jumpi\n      dup1\n      0xf2fde38b\n      eq\n      tag_18\n      jumpi\n      jump(tag_2)\n    tag_20:\n      dup1\n      0x893d20e8\n      eq\n      tag_11\n      jumpi\n      dup1\n      0x8da5cb5b\n      eq\n      tag_12\n      jumpi\n      dup1\n      0x95d89b41\n      eq\n      tag_13\n      jumpi\n      dup1\n      0xa0712d68\n      eq\n      tag_14\n      jumpi\n      jump(tag_2)\n    tag_19:\n      dup1\n      0x313ce567\n      gt\n      tag_21\n      jumpi\n      dup1\n      0x313ce567\n      eq\n      tag_7\n      jumpi\n      dup1\n      0x39509351\n      eq\n      tag_8\n      jumpi\n      dup1\n      0x70a08231\n      eq\n      tag_9\n      jumpi\n      dup1\n      0x715018a6\n      eq\n      tag_10\n      jumpi\n      jump(tag_2)\n    tag_21:\n      dup1\n      0x06fdde03\n      eq\n      tag_3\n      jumpi\n      dup1\n      0x095ea7b3\n      eq\n      tag_4\n      jumpi\n      dup1\n      0x18160ddd\n      eq\n      tag_5\n      jumpi\n      dup1\n      0x23b872dd\n      eq\n      tag_6\n      jumpi\n    tag_2:\n      0x00\n      dup1\n      revert\n        /* \"BEP20_flat.sol\":12418:12497  function name() external view returns (string memory) {\r... */\n    tag_3:\n      tag_22\n      tag_23\n      jump\t// in\n    tag_22:\n      0x40\n      dup1\n      mload\n      0x20\n      dup1\n      dup3\n      mstore\n      dup4\n      mload\n      dup2\n      dup4\n      add\n      mstore\n      dup4\n      mload\n      swap2\n      swap3\n      dup4\n      swap3\n      swap1\n      dup4\n      add\n      swap2\n      dup6\n      add\n      swap1\n      dup1\n      dup4\n      dup4\n      0x00\n        /* \"--CODEGEN--\":8:108   */\n    tag_24:\n        /* \"--CODEGEN--\":33:36   */\n      dup4\n        /* \"--CODEGEN--\":30:31   */\n      dup2\n        /* \"--CODEGEN--\":27:37   */\n      lt\n        /* \"--CODEGEN--\":8:108   */\n      iszero\n      tag_26\n      jumpi\n        /* \"--CODEGEN--\":90:101   */\n      dup2\n      dup2\n      add\n        /* \"--CODEGEN--\":84:102   */\n      mload\n        /* \"--CODEGEN--\":71:82   */\n      dup4\n      dup3\n      add\n        /* \"--CODEGEN--\":64:103   */\n      mstore\n        /* \"--CODEGEN--\":52:54   */\n      0x20\n        /* \"--CODEGEN--\":45:55   */\n      add\n        /* \"--CODEGEN--\":8:108   */\n      jump(tag_24)\n    tag_26:\n        /* \"--CODEGEN--\":12:26   */\n      pop\n        /* \"BEP20_flat.sol\":12418:12497  function name() external view returns (string memory) {\r... */\n      pop\n      pop\n      pop\n      swap1\n      pop\n      swap1\n      dup2\n      add\n      swap1\n      0x1f\n      and\n      dup1\n      iszero\n      tag_27\n      jumpi\n      dup1\n      dup3\n      sub\n      dup1\n      mload\n      0x01\n      dup4\n      0x20\n      sub\n      0x0100\n      exp\n      sub\n      not\n      and\n      dup2\n      mstore\n      0x20\n      add\n      swap2\n      pop\n    tag_27:\n      pop\n      swap3\n      pop\n      pop\n      pop\n      mload(0x40)\n      dup1\n      swap2\n      sub\n      swap1\n      return\n        /* \"BEP20_flat.sol\":13458:13602  function approve(address spender, uint256 amount) external returns (bool) {\r... */\n    tag_4:\n      tag_28\n      0x04\n      dup1\n      calldatasize\n      sub\n        /* \"--CODEGEN--\":13:15   */\n      0x40\n        /* \"--CODEGEN--\":8:11   */\n      dup2\n        /* \"--CODEGEN--\":5:16   */\n      lt\n        /* \"--CODEGEN--\":2:4   */\n      iszero\n      tag_29\n      jumpi\n        /* \"--CODEGEN--\":29:30   */\n      0x00\n        /* \"--CODEGEN--\":26:27   */\n      dup1\n        /* \"--CODEGEN--\":19:31   */\n      revert\n        /* \"--CODEGEN--\":2:4   */\n    tag_29:\n      pop\n      sub(shl(0xa0, 0x01), 0x01)\n        /* \"BEP20_flat.sol\":13458:13602  function approve(address spender, uint256 amount) external returns (bool) {\r... */\n      dup2\n      calldataload\n      and\n      swap1\n      0x20\n      add\n      calldataload\n      tag_30\n      jump\t// in\n    tag_28:\n      0x40\n      dup1\n      mload\n      swap2\n      iszero\n      iszero\n      dup3\n      mstore\n      mload\n      swap1\n      dup2\n      swap1\n      sub\n      0x20\n      add\n      swap1\n      return\n        /* \"BEP20_flat.sol\":12553:12640  function totalSupply() external view returns (uint256) {\r... */\n    tag_5:\n      tag_31\n      tag_32\n      jump\t// in\n    tag_31:\n      0x40\n      dup1\n      mload\n      swap2\n      dup3\n      mstore\n      mload\n      swap1\n      dup2\n      swap1\n      sub\n      0x20\n      add\n      swap1\n      return\n        /* \"BEP20_flat.sol\":14047:14339  function transferFrom(address sender, address recipient, uint256 amount) external returns (bool) {\r... */\n    tag_6:\n      tag_28\n      0x04\n      dup1\n      calldatasize\n      sub\n        /* \"--CODEGEN--\":13:15   */\n      0x60\n        /* \"--CODEGEN--\":8:11   */\n      dup2\n        /* \"--CODEGEN--\":5:16   */\n      lt\n        /* \"--CODEGEN--\":2:4   */\n      iszero\n      tag_34\n      jumpi\n        /* \"--CODEGEN--\":29:30   */\n      0x00\n        /* \"--CODEGEN--\":26:27   */\n      dup1\n        /* \"--CODEGEN--\":19:31   */\n      revert\n        /* \"--CODEGEN--\":2:4   */\n    tag_34:\n      pop\n      sub(shl(0xa0, 0x01), 0x01)\n        /* \"BEP20_flat.sol\":14047:14339  function transferFrom(address sender, address recipient, uint256 amount) external returns (bool) {\r... */\n      dup2\n      calldataload\n      dup2\n      and\n      swap2\n      0x20\n      dup2\n      add\n      calldataload\n      swap1\n      swap2\n      and\n      swap1\n      0x40\n      add\n      calldataload\n      tag_35\n      jump\t// in\n        /* \"BEP20_flat.sol\":12146:12225  function decimals() external view returns (uint8) {\r... */\n    tag_7:\n      tag_36\n      tag_37\n      jump\t// in\n    tag_36:\n      0x40\n      dup1\n      mload\n      0xff\n      swap1\n      swap3\n      and\n      dup3\n      mstore\n      mload\n      swap1\n      dup2\n      swap1\n      sub\n      0x20\n      add\n      swap1\n      return\n        /* \"BEP20_flat.sol\":14721:14921  function increaseAllowance(address spender, uint256 addedValue) public returns (bool) {\r... */\n    tag_8:\n      tag_28\n      0x04\n      dup1\n      calldatasize\n      sub\n        /* \"--CODEGEN--\":13:15   */\n      0x40\n        /* \"--CODEGEN--\":8:11   */\n      dup2\n        /* \"--CODEGEN--\":5:16   */\n      lt\n        /* \"--CODEGEN--\":2:4   */\n      iszero\n      tag_39\n      jumpi\n        /* \"--CODEGEN--\":29:30   */\n      0x00\n        /* \"--CODEGEN--\":26:27   */\n      dup1\n        /* \"--CODEGEN--\":19:31   */\n      revert\n        /* \"--CODEGEN--\":2:4   */\n    tag_39:\n      pop\n      sub(shl(0xa0, 0x01), 0x01)\n        /* \"BEP20_flat.sol\":14721:14921  function increaseAllowance(address spender, uint256 addedValue) public returns (bool) {\r... */\n      dup2\n      calldataload\n      and\n      swap1\n      0x20\n      add\n      calldataload\n      tag_40\n      jump\t// in\n        /* \"BEP20_flat.sol\":12694:12800  function balanceOf(address account) external view returns (uint256) {\r... */\n    tag_9:\n      tag_31\n      0x04\n      dup1\n      calldatasize\n      sub\n        /* \"--CODEGEN--\":13:15   */\n      0x20\n        /* \"--CODEGEN--\":8:11   */\n      dup2\n        /* \"--CODEGEN--\":5:16   */\n      lt\n        /* \"--CODEGEN--\":2:4   */\n      iszero\n      tag_42\n      jumpi\n        /* \"--CODEGEN--\":29:30   */\n      0x00\n        /* \"--CODEGEN--\":26:27   */\n      dup1\n        /* \"--CODEGEN--\":19:31   */\n      revert\n        /* \"--CODEGEN--\":2:4   */\n    tag_42:\n      pop\n        /* \"BEP20_flat.sol\":12694:12800  function balanceOf(address account) external view returns (uint256) {\r... */\n      calldataload\n      sub(shl(0xa0, 0x01), 0x01)\n      and\n      tag_43\n      jump\t// in\n        /* \"BEP20_flat.sol\":10644:10774  function renounceOwnership() public onlyOwner {\r... */\n    tag_10:\n      tag_44\n      tag_45\n      jump\t// in\n    tag_44:\n      stop\n        /* \"BEP20_flat.sol\":12008:12087  function getOwner() external view returns (address) {\r... */\n    tag_11:\n      tag_46\n      tag_47\n      jump\t// in\n    tag_46:\n      0x40\n      dup1\n      mload\n      sub(shl(0xa0, 0x01), 0x01)\n      swap1\n      swap3\n      and\n      dup3\n      mstore\n      mload\n      swap1\n      dup2\n      swap1\n      sub\n      0x20\n      add\n      swap1\n      return\n        /* \"BEP20_flat.sol\":10042:10115  function owner() public view returns (address) {\r... */\n    tag_12:\n      tag_46\n      tag_49\n      jump\t// in\n        /* \"BEP20_flat.sol\":12282:12365  function symbol() external view returns (string memory) {\r... */\n    tag_13:\n      tag_22\n      tag_51\n      jump\t// in\n        /* \"BEP20_flat.sol\":15844:15964  function mint(uint256 amount) public onlyOwner returns (bool) {\r... */\n    tag_14:\n      tag_28\n      0x04\n      dup1\n      calldatasize\n      sub\n        /* \"--CODEGEN--\":13:15   */\n      0x20\n        /* \"--CODEGEN--\":8:11   */\n      dup2\n        /* \"--CODEGEN--\":5:16   */\n      lt\n        /* \"--CODEGEN--\":2:4   */\n      iszero\n      tag_57\n      jumpi\n        /* \"--CODEGEN--\":29:30   */\n      0x00\n        /* \"--CODEGEN--\":26:27   */\n      dup1\n        /* \"--CODEGEN--\":19:31   */\n      revert\n        /* \"--CODEGEN--\":2:4   */\n    tag_57:\n      pop\n        /* \"BEP20_flat.sol\":15844:15964  function mint(uint256 amount) public onlyOwner returns (bool) {\r... */\n      calldataload\n      tag_58\n      jump\t// in\n        /* \"BEP20_flat.sol\":15393:15644  function decreaseAllowance(address spender, uint256 subtractedValue) public returns (bool) {\r... */\n    tag_15:\n      tag_28\n      0x04\n      dup1\n      calldatasize\n      sub\n        /* \"--CODEGEN--\":13:15   */\n      0x40\n        /* \"--CODEGEN--\":8:11   */\n      dup2\n        /* \"--CODEGEN--\":5:16   */\n      lt\n        /* \"--CODEGEN--\":2:4   */\n      iszero\n      tag_60\n      jumpi\n        /* \"--CODEGEN--\":29:30   */\n      0x00\n        /* \"--CODEGEN--\":26:27   */\n      dup1\n        /* \"--CODEGEN--\":19:31   */\n      revert\n        /* \"--CODEGEN--\":2:4   */\n    tag_60:\n      pop\n      sub(shl(0xa0, 0x01), 0x01)\n        /* \"BEP20_flat.sol\":15393:15644  function decreaseAllowance(address spender, uint256 subtractedValue) public returns (bool) {\r... */\n      dup2\n      calldataload\n      and\n      swap1\n      0x20\n      add\n      calldataload\n      tag_61\n      jump\t// in\n        /* \"BEP20_flat.sol\":12994:13144  function transfer(address recipient, uint256 amount) external returns (bool) {\r... */\n    tag_16:\n      tag_28\n      0x04\n      dup1\n      calldatasize\n      sub\n        /* \"--CODEGEN--\":13:15   */\n      0x40\n        /* \"--CODEGEN--\":8:11   */\n      dup2\n        /* \"--CODEGEN--\":5:16   */\n      lt\n        /* \"--CODEGEN--\":2:4   */\n      iszero\n      tag_63\n      jumpi\n        /* \"--CODEGEN--\":29:30   */\n      0x00\n        /* \"--CODEGEN--\":26:27   */\n      dup1\n        /* \"--CODEGEN--\":19:31   */\n      revert\n        /* \"--CODEGEN--\":2:4   */\n    tag_63:\n      pop\n      sub(shl(0xa0, 0x01), 0x01)\n        /* \"BEP20_flat.sol\":12994:13144  function transfer(address recipient, uint256 amount) external returns (bool) {\r... */\n      dup2\n      calldataload\n      and\n      swap1\n      0x20\n      add\n      calldataload\n      tag_64\n      jump\t// in\n        /* \"BEP20_flat.sol\":13198:13328  function allowance(address owner, address spender) external view returns (uint256) {\r... */\n    tag_17:\n      tag_31\n      0x04\n      dup1\n      calldatasize\n      sub\n        /* \"--CODEGEN--\":13:15   */\n      0x40\n        /* \"--CODEGEN--\":8:11   */\n      dup2\n        /* \"--CODEGEN--\":5:16   */\n      lt\n        /* \"--CODEGEN--\":2:4   */\n      iszero\n      tag_66\n      jumpi\n        /* \"--CODEGEN--\":29:30   */\n      0x00\n        /* \"--CODEGEN--\":26:27   */\n      dup1\n        /* \"--CODEGEN--\":19:31   */\n      revert\n        /* \"--CODEGEN--\":2:4   */\n    tag_66:\n      pop\n      sub(shl(0xa0, 0x01), 0x01)\n        /* \"BEP20_flat.sol\":13198:13328  function allowance(address owner, address spender) external view returns (uint256) {\r... */\n      dup2\n      calldataload\n      dup2\n      and\n      swap2\n      0x20\n      add\n      calldataload\n      and\n      tag_67\n      jump\t// in\n        /* \"BEP20_flat.sol\":10919:11022  function transferOwnership(address newOwner) public onlyOwner {\r... */\n    tag_18:\n      tag_44\n      0x04\n      dup1\n      calldatasize\n      sub\n        /* \"--CODEGEN--\":13:15   */\n      0x20\n        /* \"--CODEGEN--\":8:11   */\n      dup2\n        /* \"--CODEGEN--\":5:16   */\n      lt\n        /* \"--CODEGEN--\":2:4   */\n      iszero\n      tag_69\n      jumpi\n        /* \"--CODEGEN--\":29:30   */\n      0x00\n        /* \"--CODEGEN--\":26:27   */\n      dup1\n        /* \"--CODEGEN--\":19:31   */\n      revert\n        /* \"--CODEGEN--\":2:4   */\n    tag_69:\n      pop\n        /* \"BEP20_flat.sol\":10919:11022  function transferOwnership(address newOwner) public onlyOwner {\r... */\n      calldataload\n      sub(shl(0xa0, 0x01), 0x01)\n      and\n      tag_70\n      jump\t// in\n        /* \"BEP20_flat.sol\":12418:12497  function name() external view returns (string memory) {\r... */\n    tag_23:\n        /* \"BEP20_flat.sol\":12486:12491  _name */\n      0x06\n        /* \"BEP20_flat.sol\":12479:12491  return _name */\n      dup1\n      sload\n      0x40\n      dup1\n      mload\n      0x20\n      0x1f\n      0x02\n      not(0x00)\n      0x0100\n      0x01\n      dup9\n      and\n      iszero\n      mul\n      add\n      swap1\n      swap6\n      and\n      swap5\n      swap1\n      swap5\n      div\n      swap4\n      dup5\n      add\n      dup2\n      swap1\n      div\n      dup2\n      mul\n      dup3\n      add\n      dup2\n      add\n      swap1\n      swap3\n      mstore\n      dup3\n      dup2\n      mstore\n        /* \"BEP20_flat.sol\":12457:12470  string memory */\n      0x60\n      swap4\n        /* \"BEP20_flat.sol\":12479:12491  return _name */\n      swap1\n      swap3\n        /* \"BEP20_flat.sol\":12486:12491  _name */\n      swap1\n      swap2\n        /* \"BEP20_flat.sol\":12479:12491  return _name */\n      dup4\n      add\n        /* \"BEP20_flat.sol\":12486:12491  _name */\n      dup3\n        /* \"BEP20_flat.sol\":12479:12491  return _name */\n      dup3\n      dup1\n      iszero\n      tag_72\n      jumpi\n      dup1\n      0x1f\n      lt\n      tag_73\n      jumpi\n      0x0100\n      dup1\n      dup4\n      sload\n      div\n      mul\n      dup4\n      mstore\n      swap2\n      0x20\n      add\n      swap2\n      jump(tag_72)\n    tag_73:\n      dup3\n      add\n      swap2\n      swap1\n      0x00\n      mstore\n      keccak256(0x00, 0x20)\n      swap1\n    tag_74:\n      dup2\n      sload\n      dup2\n      mstore\n      swap1\n      0x01\n      add\n      swap1\n      0x20\n      add\n      dup1\n      dup4\n      gt\n      tag_74\n      jumpi\n      dup3\n      swap1\n      sub\n      0x1f\n      and\n      dup3\n      add\n      swap2\n    tag_72:\n      pop\n      pop\n      pop\n      pop\n      pop\n      swap1\n      pop\n        /* \"BEP20_flat.sol\":12418:12497  function name() external view returns (string memory) {\r... */\n      swap1\n      jump\t// out\n        /* \"BEP20_flat.sol\":13458:13602  function approve(address spender, uint256 amount) external returns (bool) {\r... */\n    tag_30:\n        /* \"BEP20_flat.sol\":13526:13530  bool */\n      0x00\n        /* \"BEP20_flat.sol\":13539:13578  _approve(_msgSender(), spender, amount) */\n      tag_76\n        /* \"BEP20_flat.sol\":13548:13560  _msgSender() */\n      tag_77\n        /* \"BEP20_flat.sol\":13548:13558  _msgSender */\n      tag_78\n        /* \"BEP20_flat.sol\":13548:13560  _msgSender() */\n      jump\t// in\n    tag_77:\n        /* \"BEP20_flat.sol\":13562:13569  spender */\n      dup5\n        /* \"BEP20_flat.sol\":13571:13577  amount */\n      dup5\n        /* \"BEP20_flat.sol\":13539:13547  _approve */\n      tag_79\n        /* \"BEP20_flat.sol\":13539:13578  _approve(_msgSender(), spender, amount) */\n      jump\t// in\n    tag_76:\n      pop\n        /* \"BEP20_flat.sol\":13592:13596  true */\n      0x01\n        /* \"BEP20_flat.sol\":13458:13602  function approve(address spender, uint256 amount) external returns (bool) {\r... */\n      swap3\n      swap2\n      pop\n      pop\n      jump\t// out\n        /* \"BEP20_flat.sol\":12553:12640  function totalSupply() external view returns (uint256) {\r... */\n    tag_32:\n        /* \"BEP20_flat.sol\":12622:12634  _totalSupply */\n      sload(0x03)\n        /* \"BEP20_flat.sol\":12553:12640  function totalSupply() external view returns (uint256) {\r... */\n      swap1\n      jump\t// out\n        /* \"BEP20_flat.sol\":14047:14339  function transferFrom(address sender, address recipient, uint256 amount) external returns (bool) {\r... */\n    tag_35:\n        /* \"BEP20_flat.sol\":14138:14142  bool */\n      0x00\n        /* \"BEP20_flat.sol\":14151:14187  _transfer(sender, recipient, amount) */\n      tag_82\n        /* \"BEP20_flat.sol\":14161:14167  sender */\n      dup5\n        /* \"BEP20_flat.sol\":14169:14178  recipient */\n      dup5\n        /* \"BEP20_flat.sol\":14180:14186  amount */\n      dup5\n        /* \"BEP20_flat.sol\":14151:14160  _transfer */\n      tag_83\n        /* \"BEP20_flat.sol\":14151:14187  _transfer(sender, recipient, amount) */\n      jump\t// in\n    tag_82:\n        /* \"BEP20_flat.sol\":14194:14315  _approve(sender, _msgSender(), _allowances[sender][_msgSender()].sub(amount, \"BEP20: transfer amount exceeds allowance\")) */\n      tag_84\n        /* \"BEP20_flat.sol\":14203:14209  sender */\n      dup5\n        /* \"BEP20_flat.sol\":14211:14223  _msgSender() */\n      tag_85\n        /* \"BEP20_flat.sol\":14211:14221  _msgSender */\n      tag_78\n        /* \"BEP20_flat.sol\":14211:14223  _msgSender() */\n      jump\t// in\n    tag_85:\n        /* \"BEP20_flat.sol\":14225:14314  _allowances[sender][_msgSender()].sub(amount, \"BEP20: transfer amount exceeds allowance\") */\n      tag_86\n        /* \"BEP20_flat.sol\":14263:14269  amount */\n      dup6\n        /* \"BEP20_flat.sol\":14225:14314  _allowances[sender][_msgSender()].sub(amount, \"BEP20: transfer amount exceeds allowance\") */\n      mload(0x40)\n      dup1\n      0x60\n      add\n      0x40\n      mstore\n      dup1\n      0x28\n      dup2\n      mstore\n      0x20\n      add\n      data_4f3506f4ba71c79c3cbd442a3afeb30e9b27af2d84e116a4385b34e267d2287e\n      0x28\n      swap2\n      codecopy\n      sub(shl(0xa0, 0x01), 0x01)\n        /* \"BEP20_flat.sol\":14225:14244  _allowances[sender] */\n      dup11\n      and\n      0x00\n      swap1\n      dup2\n      mstore\n        /* \"BEP20_flat.sol\":14225:14236  _allowances */\n      0x02\n        /* \"BEP20_flat.sol\":14225:14244  _allowances[sender] */\n      0x20\n      mstore\n      0x40\n      dup2\n      keccak256\n      swap1\n        /* \"BEP20_flat.sol\":14245:14257  _msgSender() */\n      tag_87\n        /* \"BEP20_flat.sol\":14245:14255  _msgSender */\n      tag_78\n        /* \"BEP20_flat.sol\":14245:14257  _msgSender() */\n      jump\t// in\n    tag_87:\n      sub(shl(0xa0, 0x01), 0x01)\n        /* \"BEP20_flat.sol\":14225:14258  _allowances[sender][_msgSender()] */\n      and\n      dup2\n      mstore\n      0x20\n      dup2\n      add\n      swap2\n      swap1\n      swap2\n      mstore\n      0x40\n      add\n      0x00\n      keccak256\n      sload\n      swap2\n        /* \"BEP20_flat.sol\":14225:14314  _allowances[sender][_msgSender()].sub(amount, \"BEP20: transfer amount exceeds allowance\") */\n      swap1\n      0xffffffff\n        /* \"BEP20_flat.sol\":14225:14262  _allowances[sender][_msgSender()].sub */\n      tag_88\n        /* \"BEP20_flat.sol\":14225:14314  _allowances[sender][_msgSender()].sub(amount, \"BEP20: transfer amount exceeds allowance\") */\n      and\n      jump\t// in\n    tag_86:\n        /* \"BEP20_flat.sol\":14194:14202  _approve */\n      tag_79\n        /* \"BEP20_flat.sol\":14194:14315  _approve(sender, _msgSender(), _allowances[sender][_msgSender()].sub(amount, \"BEP20: transfer amount exceeds allowance\")) */\n      jump\t// in\n    tag_84:\n      pop\n        /* \"BEP20_flat.sol\":14329:14333  true */\n      0x01\n        /* \"BEP20_flat.sol\":14047:14339  function transferFrom(address sender, address recipient, uint256 amount) external returns (bool) {\r... */\n      swap4\n      swap3\n      pop\n      pop\n      pop\n      jump\t// out\n        /* \"BEP20_flat.sol\":12146:12225  function decimals() external view returns (uint8) {\r... */\n    tag_37:\n        /* \"BEP20_flat.sol\":12210:12219  _decimals */\n      and(0xff, sload(0x04))\n        /* \"BEP20_flat.sol\":12146:12225  function decimals() external view returns (uint8) {\r... */\n      swap1\n      jump\t// out\n        /* \"BEP20_flat.sol\":14721:14921  function increaseAllowance(address spender, uint256 addedValue) public returns (bool) {\r... */\n    tag_40:\n        /* \"BEP20_flat.sol\":14801:14805  bool */\n      0x00\n        /* \"BEP20_flat.sol\":14814:14897  _approve(_msgSender(), spender, _allowances[_msgSender()][spender].add(addedValue)) */\n      tag_76\n        /* \"BEP20_flat.sol\":14823:14835  _msgSender() */\n      tag_92\n        /* \"BEP20_flat.sol\":14823:14833  _msgSender */\n      tag_78\n        /* \"BEP20_flat.sol\":14823:14835  _msgSender() */\n      jump\t// in\n    tag_92:\n        /* \"BEP20_flat.sol\":14837:14844  spender */\n      dup5\n        /* \"BEP20_flat.sol\":14846:14896  _allowances[_msgSender()][spender].add(addedValue) */\n      tag_86\n        /* \"BEP20_flat.sol\":14885:14895  addedValue */\n      dup6\n        /* \"BEP20_flat.sol\":14846:14857  _allowances */\n      0x02\n        /* \"BEP20_flat.sol\":14846:14871  _allowances[_msgSender()] */\n      0x00\n        /* \"BEP20_flat.sol\":14858:14870  _msgSender() */\n      tag_94\n        /* \"BEP20_flat.sol\":14858:14868  _msgSender */\n      tag_78\n        /* \"BEP20_flat.sol\":14858:14870  _msgSender() */\n      jump\t// in\n    tag_94:\n      sub(shl(0xa0, 0x01), 0x01)\n        /* \"BEP20_flat.sol\":14846:14871  _allowances[_msgSender()] */\n      swap1\n      dup2\n      and\n      dup3\n      mstore\n      0x20\n      dup1\n      dup4\n      add\n      swap4\n      swap1\n      swap4\n      mstore\n      0x40\n      swap2\n      dup3\n      add\n      0x00\n      swap1\n      dup2\n      keccak256\n        /* \"BEP20_flat.sol\":14846:14880  _allowances[_msgSender()][spender] */\n      swap2\n      dup13\n      and\n      dup2\n      mstore\n      swap3\n      mstore\n      swap1\n      keccak256\n      sload\n      swap1\n        /* \"BEP20_flat.sol\":14846:14896  _allowances[_msgSender()][spender].add(addedValue) */\n      0xffffffff\n        /* \"BEP20_flat.sol\":14846:14884  _allowances[_msgSender()][spender].add */\n      tag_95\n        /* \"BEP20_flat.sol\":14846:14896  _allowances[_msgSender()][spender].add(addedValue) */\n      and\n      jump\t// in\n        /* \"BEP20_flat.sol\":12694:12800  function balanceOf(address account) external view returns (uint256) {\r... */\n    tag_43:\n      sub(shl(0xa0, 0x01), 0x01)\n        /* \"BEP20_flat.sol\":12776:12794  _balances[account] */\n      and\n        /* \"BEP20_flat.sol\":12753:12760  uint256 */\n      0x00\n        /* \"BEP20_flat.sol\":12776:12794  _balances[account] */\n      swap1\n      dup2\n      mstore\n        /* \"BEP20_flat.sol\":12776:12785  _balances */\n      0x01\n        /* \"BEP20_flat.sol\":12776:12794  _balances[account] */\n      0x20\n      mstore\n      0x40\n      swap1\n      keccak256\n      sload\n      swap1\n        /* \"BEP20_flat.sol\":12694:12800  function balanceOf(address account) external view returns (uint256) {\r... */\n      jump\t// out\n        /* \"BEP20_flat.sol\":10644:10774  function renounceOwnership() public onlyOwner {\r... */\n    tag_45:\n        /* \"BEP20_flat.sol\":10246:10258  _msgSender() */\n      tag_98\n        /* \"BEP20_flat.sol\":10246:10256  _msgSender */\n      tag_78\n        /* \"BEP20_flat.sol\":10246:10258  _msgSender() */\n      jump\t// in\n    tag_98:\n        /* \"BEP20_flat.sol\":10236:10242  _owner */\n      sload(0x00)\n      sub(shl(0xa0, 0x01), 0x01)\n      swap1\n      dup2\n      and\n        /* \"BEP20_flat.sol\":10236:10258  _owner == _msgSender() */\n      swap2\n      and\n      eq\n        /* \"BEP20_flat.sol\":10228:10295  require(_owner == _msgSender(), \"Ownable: caller is not the owner\") */\n      tag_99\n      jumpi\n      0x40\n      dup1\n      mload\n      shl(0xe5, 0x461bcd)\n      dup2\n      mstore\n      0x20\n      0x04\n      dup3\n      add\n      dup2\n      swap1\n      mstore\n      0x24\n      dup3\n      add\n      mstore\n      0x4f776e61626c653a2063616c6c6572206973206e6f7420746865206f776e6572\n      0x44\n      dup3\n      add\n      mstore\n      swap1\n      mload\n      swap1\n      dup2\n      swap1\n      sub\n      0x64\n      add\n      swap1\n      revert\n    tag_99:\n        /* \"BEP20_flat.sol\":10739:10740  0 */\n      0x00\n        /* \"BEP20_flat.sol\":10723:10729  _owner */\n      dup1\n      sload\n        /* \"BEP20_flat.sol\":10702:10742  OwnershipTransferred(_owner, address(0)) */\n      mload(0x40)\n      sub(shl(0xa0, 0x01), 0x01)\n        /* \"BEP20_flat.sol\":10723:10729  _owner */\n      swap1\n      swap2\n      and\n      swap1\n        /* \"BEP20_flat.sol\":10702:10742  OwnershipTransferred(_owner, address(0)) */\n      0x8be0079c531659141344cd1fd0a4f28419497f9722a3daafe3b4186f6b6457e0\n      swap1\n        /* \"BEP20_flat.sol\":10739:10740  0 */\n      dup4\n      swap1\n        /* \"BEP20_flat.sol\":10702:10742  OwnershipTransferred(_owner, address(0)) */\n      log3\n        /* \"BEP20_flat.sol\":10766:10767  0 */\n      0x00\n        /* \"BEP20_flat.sol\":10749:10768  _owner = address(0) */\n      dup1\n      sload\n      not(sub(shl(0xa0, 0x01), 0x01))\n      and\n      swap1\n      sstore\n        /* \"BEP20_flat.sol\":10644:10774  function renounceOwnership() public onlyOwner {\r... */\n      jump\t// out\n        /* \"BEP20_flat.sol\":12008:12087  function getOwner() external view returns (address) {\r... */\n    tag_47:\n        /* \"BEP20_flat.sol\":12051:12058  address */\n      0x00\n        /* \"BEP20_flat.sol\":12074:12081  owner() */\n      tag_102\n        /* \"BEP20_flat.sol\":12074:12079  owner */\n      tag_49\n        /* \"BEP20_flat.sol\":12074:12081  owner() */\n      jump\t// in\n    tag_102:\n        /* \"BEP20_flat.sol\":12067:12081  return owner() */\n      swap1\n      pop\n        /* \"BEP20_flat.sol\":12008:12087  function getOwner() external view returns (address) {\r... */\n      swap1\n      jump\t// out\n        /* \"BEP20_flat.sol\":10042:10115  function owner() public view returns (address) {\r... */\n    tag_49:\n        /* \"BEP20_flat.sol\":10080:10087  address */\n      0x00\n        /* \"BEP20_flat.sol\":10103:10109  _owner */\n      sload\n      sub(shl(0xa0, 0x01), 0x01)\n      and\n        /* \"BEP20_flat.sol\":10042:10115  function owner() public view returns (address) {\r... */\n      swap1\n      jump\t// out\n        /* \"BEP20_flat.sol\":12282:12365  function symbol() external view returns (string memory) {\r... */\n    tag_51:\n        /* \"BEP20_flat.sol\":12352:12359  _symbol */\n      0x05\n        /* \"BEP20_flat.sol\":12345:12359  return _symbol */\n      dup1\n      sload\n      0x40\n      dup1\n      mload\n      0x20\n      0x1f\n      0x02\n      not(0x00)\n      0x0100\n      0x01\n      dup9\n      and\n      iszero\n      mul\n      add\n      swap1\n      swap6\n      and\n      swap5\n      swap1\n      swap5\n      div\n      swap4\n      dup5\n      add\n      dup2\n      swap1\n      div\n      dup2\n      mul\n      dup3\n      add\n      dup2\n      add\n      swap1\n      swap3\n      mstore\n      dup3\n      dup2\n      mstore\n        /* \"BEP20_flat.sol\":12323:12336  string memory */\n      0x60\n      swap4\n        /* \"BEP20_flat.sol\":12345:12359  return _symbol */\n      swap1\n      swap3\n        /* \"BEP20_flat.sol\":12352:12359  _symbol */\n      swap1\n      swap2\n        /* \"BEP20_flat.sol\":12345:12359  return _symbol */\n      dup4\n      add\n        /* \"BEP20_flat.sol\":12352:12359  _symbol */\n      dup3\n        /* \"BEP20_flat.sol\":12345:12359  return _symbol */\n      dup3\n      dup1\n      iszero\n      tag_72\n      jumpi\n      dup1\n      0x1f\n      lt\n      tag_73\n      jumpi\n      0x0100\n      dup1\n      dup4\n      sload\n      div\n      mul\n      dup4\n      mstore\n      swap2\n      0x20\n      add\n      swap2\n      jump(tag_72)\n        /* \"BEP20_flat.sol\":15844:15964  function mint(uint256 amount) public onlyOwner returns (bool) {\r... */\n    tag_58:\n        /* \"BEP20_flat.sol\":15900:15904  bool */\n      0x00\n        /* \"BEP20_flat.sol\":10246:10258  _msgSender() */\n      tag_109\n        /* \"BEP20_flat.sol\":10246:10256  _msgSender */\n      tag_78\n        /* \"BEP20_flat.sol\":10246:10258  _msgSender() */\n      jump\t// in\n    tag_109:\n        /* \"BEP20_flat.sol\":10236:10242  _owner */\n      sload(0x00)\n      sub(shl(0xa0, 0x01), 0x01)\n      swap1\n      dup2\n      and\n        /* \"BEP20_flat.sol\":10236:10258  _owner == _msgSender() */\n      swap2\n      and\n      eq\n        /* \"BEP20_flat.sol\":10228:10295  require(_owner == _msgSender(), \"Ownable: caller is not the owner\") */\n      tag_110\n      jumpi\n      0x40\n      dup1\n      mload\n      shl(0xe5, 0x461bcd)\n      dup2\n      mstore\n      0x20\n      0x04\n      dup3\n      add\n      dup2\n      swap1\n      mstore\n      0x24\n      dup3\n      add\n      mstore\n      0x4f776e61626c653a2063616c6c6572206973206e6f7420746865206f776e6572\n      0x44\n      dup3\n      add\n      mstore\n      swap1\n      mload\n      swap1\n      dup2\n      swap1\n      sub\n      0x64\n      add\n      swap1\n      revert\n    tag_110:\n        /* \"BEP20_flat.sol\":15913:15940  _mint(_msgSender(), amount) */\n      tag_112\n        /* \"BEP20_flat.sol\":15919:15931  _msgSender() */\n      tag_113\n        /* \"BEP20_flat.sol\":15919:15929  _msgSender */\n      tag_78\n        /* \"BEP20_flat.sol\":15919:15931  _msgSender() */\n      jump\t// in\n    tag_113:\n        /* \"BEP20_flat.sol\":15933:15939  amount */\n      dup4\n        /* \"BEP20_flat.sol\":15913:15918  _mint */\n      tag_114\n        /* \"BEP20_flat.sol\":15913:15940  _mint(_msgSender(), amount) */\n      jump\t// in\n    tag_112:\n      pop\n        /* \"BEP20_flat.sol\":15954:15958  true */\n      0x01\n        /* \"BEP20_flat.sol\":15844:15964  function mint(uint256 amount) public onlyOwner returns (bool) {\r... */\n      swap2\n      swap1\n      pop\n      jump\t// out\n        /* \"BEP20_flat.sol\":15393:15644  function decreaseAllowance(address spender, uint256 subtractedValue) public returns (bool) {\r... */\n    tag_61:\n        /* \"BEP20_flat.sol\":15478:15482  bool */\n      0x00\n        /* \"BEP20_flat.sol\":15491:15620  _approve(_msgSender(), spender, _allowances[_msgSender()][spender].sub(subtractedValue, \"BEP20: decreased allowance below zero\")) */\n      tag_76\n        /* \"BEP20_flat.sol\":15500:15512  _msgSender() */\n      tag_117\n        /* \"BEP20_flat.sol\":15500:15510  _msgSender */\n      tag_78\n        /* \"BEP20_flat.sol\":15500:15512  _msgSender() */\n      jump\t// in\n    tag_117:\n        /* \"BEP20_flat.sol\":15514:15521  spender */\n      dup5\n        /* \"BEP20_flat.sol\":15523:15619  _allowances[_msgSender()][spender].sub(subtractedValue, \"BEP20: decreased allowance below zero\") */\n      tag_86\n        /* \"BEP20_flat.sol\":15562:15577  subtractedValue */\n      dup6\n        /* \"BEP20_flat.sol\":15523:15619  _allowances[_msgSender()][spender].sub(subtractedValue, \"BEP20: decreased allowance below zero\") */\n      mload(0x40)\n      dup1\n      0x60\n      add\n      0x40\n      mstore\n      dup1\n      0x25\n      dup2\n      mstore\n      0x20\n      add\n      data_b7060b3538dcd3ddc8a941c91636a8115a1aa46914747fd9809d543bbb46cd22\n      0x25\n      swap2\n      codecopy\n        /* \"BEP20_flat.sol\":15523:15534  _allowances */\n      0x02\n        /* \"BEP20_flat.sol\":15523:15548  _allowances[_msgSender()] */\n      0x00\n        /* \"BEP20_flat.sol\":15535:15547  _msgSender() */\n      tag_119\n        /* \"BEP20_flat.sol\":15535:15545  _msgSender */\n      tag_78\n        /* \"BEP20_flat.sol\":15535:15547  _msgSender() */\n      jump\t// in\n    tag_119:\n      sub(shl(0xa0, 0x01), 0x01)\n        /* \"BEP20_flat.sol\":15523:15548  _allowances[_msgSender()] */\n      swap1\n      dup2\n      and\n      dup3\n      mstore\n      0x20\n      dup1\n      dup4\n      add\n      swap4\n      swap1\n      swap4\n      mstore\n      0x40\n      swap2\n      dup3\n      add\n      0x00\n      swap1\n      dup2\n      keccak256\n        /* \"BEP20_flat.sol\":15523:15557  _allowances[_msgSender()][spender] */\n      swap2\n      dup14\n      and\n      dup2\n      mstore\n      swap3\n      mstore\n      swap1\n      keccak256\n      sload\n      swap2\n        /* \"BEP20_flat.sol\":15523:15619  _allowances[_msgSender()][spender].sub(subtractedValue, \"BEP20: decreased allowance below zero\") */\n      swap1\n      0xffffffff\n        /* \"BEP20_flat.sol\":15523:15561  _allowances[_msgSender()][spender].sub */\n      tag_88\n        /* \"BEP20_flat.sol\":15523:15619  _allowances[_msgSender()][spender].sub(subtractedValue, \"BEP20: decreased allowance below zero\") */\n      and\n      jump\t// in\n        /* \"BEP20_flat.sol\":12994:13144  function transfer(address recipient, uint256 amount) external returns (bool) {\r... */\n    tag_64:\n        /* \"BEP20_flat.sol\":13065:13069  bool */\n      0x00\n        /* \"BEP20_flat.sol\":13078:13120  _transfer(_msgSender(), recipient, amount) */\n      tag_76\n        /* \"BEP20_flat.sol\":13088:13100  _msgSender() */\n      tag_122\n        /* \"BEP20_flat.sol\":13088:13098  _msgSender */\n      tag_78\n        /* \"BEP20_flat.sol\":13088:13100  _msgSender() */\n      jump\t// in\n    tag_122:\n        /* \"BEP20_flat.sol\":13102:13111  recipient */\n      dup5\n        /* \"BEP20_flat.sol\":13113:13119  amount */\n      dup5\n        /* \"BEP20_flat.sol\":13078:13087  _transfer */\n      tag_83\n        /* \"BEP20_flat.sol\":13078:13120  _transfer(_msgSender(), recipient, amount) */\n      jump\t// in\n        /* \"BEP20_flat.sol\":13198:13328  function allowance(address owner, address spender) external view returns (uint256) {\r... */\n    tag_67:\n      sub(shl(0xa0, 0x01), 0x01)\n        /* \"BEP20_flat.sol\":13295:13313  _allowances[owner] */\n      swap2\n      dup3\n      and\n        /* \"BEP20_flat.sol\":13272:13279  uint256 */\n      0x00\n        /* \"BEP20_flat.sol\":13295:13313  _allowances[owner] */\n      swap1\n      dup2\n      mstore\n        /* \"BEP20_flat.sol\":13295:13306  _allowances */\n      0x02\n        /* \"BEP20_flat.sol\":13295:13313  _allowances[owner] */\n      0x20\n      swap1\n      dup2\n      mstore\n      0x40\n      dup1\n      dup4\n      keccak256\n        /* \"BEP20_flat.sol\":13295:13322  _allowances[owner][spender] */\n      swap4\n      swap1\n      swap5\n      and\n      dup3\n      mstore\n      swap2\n      swap1\n      swap2\n      mstore\n      keccak256\n      sload\n      swap1\n        /* \"BEP20_flat.sol\":13198:13328  function allowance(address owner, address spender) external view returns (uint256) {\r... */\n      jump\t// out\n        /* \"BEP20_flat.sol\":10919:11022  function transferOwnership(address newOwner) public onlyOwner {\r... */\n    tag_70:\n        /* \"BEP20_flat.sol\":10246:10258  _msgSender() */\n      tag_125\n        /* \"BEP20_flat.sol\":10246:10256  _msgSender */\n      tag_78\n        /* \"BEP20_flat.sol\":10246:10258  _msgSender() */\n      jump\t// in\n    tag_125:\n        /* \"BEP20_flat.sol\":10236:10242  _owner */\n      sload(0x00)\n      sub(shl(0xa0, 0x01), 0x01)\n      swap1\n      dup2\n      and\n        /* \"BEP20_flat.sol\":10236:10258  _owner == _msgSender() */\n      swap2\n      and\n      eq\n        /* \"BEP20_flat.sol\":10228:10295  require(_owner == _msgSender(), \"Ownable: caller is not the owner\") */\n      tag_126\n      jumpi\n      0x40\n      dup1\n      mload\n      shl(0xe5, 0x461bcd)\n      dup2\n      mstore\n      0x20\n      0x04\n      dup3\n      add\n      dup2\n      swap1\n      mstore\n      0x24\n      dup3\n      add\n      mstore\n      0x4f776e61626c653a2063616c6c6572206973206e6f7420746865206f776e6572\n      0x44\n      dup3\n      add\n      mstore\n      swap1\n      mload\n      swap1\n      dup2\n      swap1\n      sub\n      0x64\n      add\n      swap1\n      revert\n    tag_126:\n        /* \"BEP20_flat.sol\":10988:11016  _transferOwnership(newOwner) */\n      tag_128\n        /* \"BEP20_flat.sol\":11007:11015  newOwner */\n      dup2\n        /* \"BEP20_flat.sol\":10988:11006  _transferOwnership */\n      tag_129\n        /* \"BEP20_flat.sol\":10988:11016  _transferOwnership(newOwner) */\n      jump\t// in\n    tag_128:\n        /* \"BEP20_flat.sol\":10919:11022  function transferOwnership(address newOwner) public onlyOwner {\r... */\n      pop\n      jump\t// out\n        /* \"BEP20_flat.sol\":3739:3831  function _msgSender() internal view returns (address payable) {\r... */\n    tag_78:\n        /* \"BEP20_flat.sol\":3815:3825  msg.sender */\n      caller\n        /* \"BEP20_flat.sol\":3739:3831  function _msgSender() internal view returns (address payable) {\r... */\n      swap1\n      jump\t// out\n        /* \"BEP20_flat.sol\":18474:18794  function _approve(address owner, address spender, uint256 amount) internal {\r... */\n    tag_79:\n      sub(shl(0xa0, 0x01), 0x01)\n        /* \"BEP20_flat.sol\":18564:18583  owner != address(0) */\n      dup4\n      and\n        /* \"BEP20_flat.sol\":18556:18624  require(owner != address(0), \"BEP20: approve from the zero address\") */\n      tag_132\n      jumpi\n      mload(0x40)\n      shl(0xe5, 0x461bcd)\n      dup2\n      mstore\n      0x04\n      add\n      dup1\n      dup1\n      0x20\n      add\n      dup3\n      dup2\n      sub\n      dup3\n      mstore\n      0x24\n      dup2\n      mstore\n      0x20\n      add\n      dup1\n      data_1441cfbef485de93bedecc35b3d10fa2992db382c4c9c583a6e423a140abe4a4\n      0x24\n      swap2\n      codecopy\n      0x40\n      add\n      swap2\n      pop\n      pop\n      mload(0x40)\n      dup1\n      swap2\n      sub\n      swap1\n      revert\n    tag_132:\n      sub(shl(0xa0, 0x01), 0x01)\n        /* \"BEP20_flat.sol\":18639:18660  spender != address(0) */\n      dup3\n      and\n        /* \"BEP20_flat.sol\":18631:18699  require(spender != address(0), \"BEP20: approve to the zero address\") */\n      tag_133\n      jumpi\n      mload(0x40)\n      shl(0xe5, 0x461bcd)\n      dup2\n      mstore\n      0x04\n      add\n      dup1\n      dup1\n      0x20\n      add\n      dup3\n      dup2\n      sub\n      dup3\n      mstore\n      0x22\n      dup2\n      mstore\n      0x20\n      add\n      dup1\n      data_f10e7571e18b354270dee950932fb6a745efc79414b2b2556185a4ed6a1af0d5\n      0x22\n      swap2\n      codecopy\n      0x40\n      add\n      swap2\n      pop\n      pop\n      mload(0x40)\n      dup1\n      swap2\n      sub\n      swap1\n      revert\n    tag_133:\n      sub(shl(0xa0, 0x01), 0x01)\n        /* \"BEP20_flat.sol\":18708:18726  _allowances[owner] */\n      dup1\n      dup5\n      and\n      0x00\n      dup2\n      dup2\n      mstore\n        /* \"BEP20_flat.sol\":18708:18719  _allowances */\n      0x02\n        /* \"BEP20_flat.sol\":18708:18726  _allowances[owner] */\n      0x20\n      swap1\n      dup2\n      mstore\n      0x40\n      dup1\n      dup4\n      keccak256\n        /* \"BEP20_flat.sol\":18708:18735  _allowances[owner][spender] */\n      swap5\n      dup8\n      and\n      dup1\n      dup5\n      mstore\n      swap5\n      dup3\n      mstore\n      swap2\n      dup3\n      swap1\n      keccak256\n        /* \"BEP20_flat.sol\":18708:18744  _allowances[owner][spender] = amount */\n      dup6\n      swap1\n      sstore\n        /* \"BEP20_flat.sol\":18756:18788  Approval(owner, spender, amount) */\n      dup2\n      mload\n      dup6\n      dup2\n      mstore\n      swap2\n      mload\n      0x8c5be1e5ebec7d5bd14f71427d1e84f3dd0314c0f7b2291e5b200ac8c7c3b925\n      swap3\n      dup2\n      swap1\n      sub\n      swap1\n      swap2\n      add\n      swap1\n      log3\n        /* \"BEP20_flat.sol\":18474:18794  function _approve(address owner, address spender, uint256 amount) internal {\r... */\n      pop\n      pop\n      pop\n      jump\t// out\n        /* \"BEP20_flat.sol\":16424:16873  function _transfer(address sender, address recipient, uint256 amount) internal {\r... */\n    tag_83:\n      sub(shl(0xa0, 0x01), 0x01)\n        /* \"BEP20_flat.sol\":16518:16538  sender != address(0) */\n      dup4\n      and\n        /* \"BEP20_flat.sol\":16510:16580  require(sender != address(0), \"BEP20: transfer from the zero address\") */\n      tag_135\n      jumpi\n      mload(0x40)\n      shl(0xe5, 0x461bcd)\n      dup2\n      mstore\n      0x04\n      add\n      dup1\n      dup1\n      0x20\n      add\n      dup3\n      dup2\n      sub\n      dup3\n      mstore\n      0x25\n      dup2\n      mstore\n      0x20\n      add\n      dup1\n      data_0d26cf302d50b28de74be656b11d67092b32131e5712d1bcf08c4e976dacda57\n      0x25\n      swap2\n      codecopy\n      0x40\n      add\n      swap2\n      pop\n      pop\n      mload(0x40)\n      dup1\n      swap2\n      sub\n      swap1\n      revert\n    tag_135:\n      sub(shl(0xa0, 0x01), 0x01)\n        /* \"BEP20_flat.sol\":16595:16618  recipient != address(0) */\n      dup3\n      and\n        /* \"BEP20_flat.sol\":16587:16658  require(recipient != address(0), \"BEP20: transfer to the zero address\") */\n      tag_136\n      jumpi\n      mload(0x40)\n      shl(0xe5, 0x461bcd)\n      dup2\n      mstore\n      0x04\n      add\n      dup1\n      dup1\n      0x20\n      add\n      dup3\n      dup2\n      sub\n      dup3\n      mstore\n      0x23\n      dup2\n      mstore\n      0x20\n      add\n      dup1\n      data_ade9efcb59e42e439ffe61509b352b1af56d64ccb68d80b039b7b69578f371d2\n      0x23\n      swap2\n      codecopy\n      0x40\n      add\n      swap2\n      pop\n      pop\n      mload(0x40)\n      dup1\n      swap2\n      sub\n      swap1\n      revert\n    tag_136:\n        /* \"BEP20_flat.sol\":16687:16758  _balances[sender].sub(amount, \"BEP20: transfer amount exceeds balance\") */\n      tag_137\n        /* \"BEP20_flat.sol\":16709:16715  amount */\n      dup2\n        /* \"BEP20_flat.sol\":16687:16758  _balances[sender].sub(amount, \"BEP20: transfer amount exceeds balance\") */\n      mload(0x40)\n      dup1\n      0x60\n      add\n      0x40\n      mstore\n      dup1\n      0x26\n      dup2\n      mstore\n      0x20\n      add\n      data_a91efd7a65ef5b4ae4d6568d674798b78a5a89184dd296c100513251c22d3e73\n      0x26\n      swap2\n      codecopy\n      sub(shl(0xa0, 0x01), 0x01)\n        /* \"BEP20_flat.sol\":16687:16704  _balances[sender] */\n      dup7\n      and\n      0x00\n      swap1\n      dup2\n      mstore\n        /* \"BEP20_flat.sol\":16687:16696  _balances */\n      0x01\n        /* \"BEP20_flat.sol\":16687:16704  _balances[sender] */\n      0x20\n      mstore\n      0x40\n      swap1\n      keccak256\n      sload\n      swap2\n        /* \"BEP20_flat.sol\":16687:16758  _balances[sender].sub(amount, \"BEP20: transfer amount exceeds balance\") */\n      swap1\n      0xffffffff\n        /* \"BEP20_flat.sol\":16687:16708  _balances[sender].sub */\n      tag_88\n        /* \"BEP20_flat.sol\":16687:16758  _balances[sender].sub(amount, \"BEP20: transfer amount exceeds balance\") */\n      and\n      jump\t// in\n    tag_137:\n      sub(shl(0xa0, 0x01), 0x01)\n        /* \"BEP20_flat.sol\":16667:16684  _balances[sender] */\n      dup1\n      dup6\n      and\n      0x00\n      swap1\n      dup2\n      mstore\n        /* \"BEP20_flat.sol\":16667:16676  _balances */\n      0x01\n        /* \"BEP20_flat.sol\":16667:16684  _balances[sender] */\n      0x20\n      mstore\n      0x40\n      dup1\n      dup3\n      keccak256\n        /* \"BEP20_flat.sol\":16667:16758  _balances[sender] = _balances[sender].sub(amount, \"BEP20: transfer amount exceeds balance\") */\n      swap4\n      swap1\n      swap4\n      sstore\n        /* \"BEP20_flat.sol\":16788:16808  _balances[recipient] */\n      swap1\n      dup5\n      and\n      dup2\n      mstore\n      keccak256\n      sload\n        /* \"BEP20_flat.sol\":16788:16820  _balances[recipient].add(amount) */\n      tag_138\n      swap1\n        /* \"BEP20_flat.sol\":16813:16819  amount */\n      dup3\n        /* \"BEP20_flat.sol\":16788:16820  _balances[recipient].add(amount) */\n      0xffffffff\n        /* \"BEP20_flat.sol\":16788:16812  _balances[recipient].add */\n      tag_95\n        /* \"BEP20_flat.sol\":16788:16820  _balances[recipient].add(amount) */\n      and\n      jump\t// in\n    tag_138:\n      sub(shl(0xa0, 0x01), 0x01)\n        /* \"BEP20_flat.sol\":16765:16785  _balances[recipient] */\n      dup1\n      dup5\n      and\n      0x00\n      dup2\n      dup2\n      mstore\n        /* \"BEP20_flat.sol\":16765:16774  _balances */\n      0x01\n        /* \"BEP20_flat.sol\":16765:16785  _balances[recipient] */\n      0x20\n      swap1\n      dup2\n      mstore\n      0x40\n      swap2\n      dup3\n      swap1\n      keccak256\n        /* \"BEP20_flat.sol\":16765:16820  _balances[recipient] = _balances[recipient].add(amount) */\n      swap5\n      swap1\n      swap5\n      sstore\n        /* \"BEP20_flat.sol\":16832:16867  Transfer(sender, recipient, amount) */\n      dup1\n      mload\n      dup6\n      dup2\n      mstore\n      swap1\n      mload\n        /* \"BEP20_flat.sol\":16765:16785  _balances[recipient] */\n      swap2\n      swap4\n        /* \"BEP20_flat.sol\":16832:16867  Transfer(sender, recipient, amount) */\n      swap3\n      dup8\n      and\n      swap3\n      0xddf252ad1be2c89b69c2b068fc378daa952ba7f163c4a11628f55a4df523b3ef\n      swap3\n      swap2\n      dup3\n      swap1\n      sub\n      add\n      swap1\n      log3\n        /* \"BEP20_flat.sol\":16424:16873  function _transfer(address sender, address recipient, uint256 amount) internal {\r... */\n      pop\n      pop\n      pop\n      jump\t// out\n        /* \"BEP20_flat.sol\":5698:5876  function sub(uint256 a, uint256 b, string memory errorMessage) internal pure returns (uint256) {\r... */\n    tag_88:\n        /* \"BEP20_flat.sol\":5784:5791  uint256 */\n      0x00\n        /* \"BEP20_flat.sol\":5816:5828  errorMessage */\n      dup2\n        /* \"BEP20_flat.sol\":5808:5814  b <= a */\n      dup5\n      dup5\n      gt\n      iszero\n        /* \"BEP20_flat.sol\":5800:5829  require(b <= a, errorMessage) */\n      tag_140\n      jumpi\n      mload(0x40)\n      shl(0xe5, 0x461bcd)\n      dup2\n      mstore\n      0x04\n      add\n      dup1\n      dup1\n      0x20\n      add\n      dup3\n      dup2\n      sub\n      dup3\n      mstore\n      dup4\n      dup2\n      dup2\n      mload\n      dup2\n      mstore\n      0x20\n      add\n      swap2\n      pop\n      dup1\n      mload\n      swap1\n      0x20\n      add\n      swap1\n      dup1\n      dup4\n      dup4\n        /* \"--CODEGEN--\":23:24   */\n      0x00\n        /* \"--CODEGEN--\":8:108   */\n    tag_141:\n        /* \"--CODEGEN--\":33:36   */\n      dup4\n        /* \"--CODEGEN--\":30:31   */\n      dup2\n        /* \"--CODEGEN--\":27:37   */\n      lt\n        /* \"--CODEGEN--\":8:108   */\n      iszero\n      tag_143\n      jumpi\n        /* \"--CODEGEN--\":90:101   */\n      dup2\n      dup2\n      add\n        /* \"--CODEGEN--\":84:102   */\n      mload\n        /* \"--CODEGEN--\":71:82   */\n      dup4\n      dup3\n      add\n        /* \"--CODEGEN--\":64:103   */\n      mstore\n        /* \"--CODEGEN--\":52:54   */\n      0x20\n        /* \"--CODEGEN--\":45:55   */\n      add\n        /* \"--CODEGEN--\":8:108   */\n      jump(tag_141)\n    tag_143:\n        /* \"--CODEGEN--\":12:26   */\n      pop\n        /* \"BEP20_flat.sol\":5800:5829  require(b <= a, errorMessage) */\n      pop\n      pop\n      pop\n      swap1\n      pop\n      swap1\n      dup2\n      add\n      swap1\n      0x1f\n      and\n      dup1\n      iszero\n      tag_144\n      jumpi\n      dup1\n      dup3\n      sub\n      dup1\n      mload\n      0x01\n      dup4\n      0x20\n      sub\n      0x0100\n      exp\n      sub\n      not\n      and\n      dup2\n      mstore\n      0x20\n      add\n      swap2\n      pop\n    tag_144:\n      pop\n      swap3\n      pop\n      pop\n      pop\n      mload(0x40)\n      dup1\n      swap2\n      sub\n      swap1\n      revert\n    tag_140:\n      pop\n      pop\n      pop\n        /* \"BEP20_flat.sol\":5848:5853  a - b */\n      swap1\n      sub\n      swap1\n        /* \"BEP20_flat.sol\":5698:5876  function sub(uint256 a, uint256 b, string memory errorMessage) internal pure returns (uint256) {\r... */\n      jump\t// out\n        /* \"BEP20_flat.sol\":4871:5038  function add(uint256 a, uint256 b) internal pure returns (uint256) {\r... */\n    tag_95:\n        /* \"BEP20_flat.sol\":4929:4936  uint256 */\n      0x00\n        /* \"BEP20_flat.sol\":4957:4962  a + b */\n      dup3\n      dup3\n      add\n        /* \"BEP20_flat.sol\":4977:4983  c >= a */\n      dup4\n      dup2\n      lt\n      iszero\n        /* \"BEP20_flat.sol\":4969:5015  require(c >= a, \"SafeMath: addition overflow\") */\n      tag_146\n      jumpi\n      0x40\n      dup1\n      mload\n      shl(0xe5, 0x461bcd)\n      dup2\n      mstore\n      0x20\n      0x04\n      dup3\n      add\n      mstore\n      0x1b\n      0x24\n      dup3\n      add\n      mstore\n      0x536166654d6174683a206164646974696f6e206f766572666c6f770000000000\n      0x44\n      dup3\n      add\n      mstore\n      swap1\n      mload\n      swap1\n      dup2\n      swap1\n      sub\n      0x64\n      add\n      swap1\n      revert\n    tag_146:\n        /* \"BEP20_flat.sol\":5031:5032  c */\n      swap4\n        /* \"BEP20_flat.sol\":4871:5038  function add(uint256 a, uint256 b) internal pure returns (uint256) {\r... */\n      swap3\n      pop\n      pop\n      pop\n      jump\t// out\n        /* \"BEP20_flat.sol\":17134:17424  function _mint(address account, uint256 amount) internal {\r... */\n    tag_114:\n      sub(shl(0xa0, 0x01), 0x01)\n        /* \"BEP20_flat.sol\":17206:17227  account != address(0) */\n      dup3\n      and\n        /* \"BEP20_flat.sol\":17198:17263  require(account != address(0), \"BEP20: mint to the zero address\") */\n      tag_148\n      jumpi\n      0x40\n      dup1\n      mload\n      shl(0xe5, 0x461bcd)\n      dup2\n      mstore\n      0x20\n      0x04\n      dup3\n      add\n      mstore\n      0x1f\n      0x24\n      dup3\n      add\n      mstore\n      0x42455032303a206d696e7420746f20746865207a65726f206164647265737300\n      0x44\n      dup3\n      add\n      mstore\n      swap1\n      mload\n      swap1\n      dup2\n      swap1\n      sub\n      0x64\n      add\n      swap1\n      revert\n    tag_148:\n        /* \"BEP20_flat.sol\":17287:17299  _totalSupply */\n      sload(0x03)\n        /* \"BEP20_flat.sol\":17287:17311  _totalSupply.add(amount) */\n      tag_149\n      swap1\n        /* \"BEP20_flat.sol\":17304:17310  amount */\n      dup3\n        /* \"BEP20_flat.sol\":17287:17311  _totalSupply.add(amount) */\n      0xffffffff\n        /* \"BEP20_flat.sol\":17287:17303  _totalSupply.add */\n      tag_95\n        /* \"BEP20_flat.sol\":17287:17311  _totalSupply.add(amount) */\n      and\n      jump\t// in\n    tag_149:\n        /* \"BEP20_flat.sol\":17272:17284  _totalSupply */\n      0x03\n        /* \"BEP20_flat.sol\":17272:17311  _totalSupply = _totalSupply.add(amount) */\n      sstore\n      sub(shl(0xa0, 0x01), 0x01)\n        /* \"BEP20_flat.sol\":17339:17357  _balances[account] */\n      dup3\n      and\n      0x00\n      swap1\n      dup2\n      mstore\n        /* \"BEP20_flat.sol\":17339:17348  _balances */\n      0x01\n        /* \"BEP20_flat.sol\":17339:17357  _balances[account] */\n      0x20\n      mstore\n      0x40\n      swap1\n      keccak256\n      sload\n        /* \"BEP20_flat.sol\":17339:17369  _balances[account].add(amount) */\n      tag_150\n      swap1\n        /* \"BEP20_flat.sol\":17362:17368  amount */\n      dup3\n        /* \"BEP20_flat.sol\":17339:17369  _balances[account].add(amount) */\n      0xffffffff\n        /* \"BEP20_flat.sol\":17339:17361  _balances[account].add */\n      tag_95\n        /* \"BEP20_flat.sol\":17339:17369  _balances[account].add(amount) */\n      and\n      jump\t// in\n    tag_150:\n      sub(shl(0xa0, 0x01), 0x01)\n        /* \"BEP20_flat.sol\":17318:17336  _balances[account] */\n      dup4\n      and\n      0x00\n      dup2\n      dup2\n      mstore\n        /* \"BEP20_flat.sol\":17318:17327  _balances */\n      0x01\n        /* \"BEP20_flat.sol\":17318:17336  _balances[account] */\n      0x20\n      swap1\n      dup2\n      mstore\n      0x40\n      dup1\n      dup4\n      keccak256\n        /* \"BEP20_flat.sol\":17318:17369  _balances[account] = _balances[account].add(amount) */\n      swap5\n      swap1\n      swap5\n      sstore\n        /* \"BEP20_flat.sol\":17381:17418  Transfer(address(0), account, amount) */\n      dup4\n      mload\n      dup6\n      dup2\n      mstore\n      swap4\n      mload\n        /* \"BEP20_flat.sol\":17318:17336  _balances[account] */\n      swap3\n      swap4\n      swap2\n      swap3\n        /* \"BEP20_flat.sol\":17381:17418  Transfer(address(0), account, amount) */\n      0xddf252ad1be2c89b69c2b068fc378daa952ba7f163c4a11628f55a4df523b3ef\n      swap3\n      dup2\n      swap1\n      sub\n      swap1\n      swap2\n      add\n      swap1\n      log3\n        /* \"BEP20_flat.sol\":17134:17424  function _mint(address account, uint256 amount) internal {\r... */\n      pop\n      pop\n      jump\t// out\n        /* \"BEP20_flat.sol\":11120:11335  function _transferOwnership(address newOwner) internal {\r... */\n    tag_129:\n      sub(shl(0xa0, 0x01), 0x01)\n        /* \"BEP20_flat.sol\":11190:11212  newOwner != address(0) */\n      dup2\n      and\n        /* \"BEP20_flat.sol\":11182:11255  require(newOwner != address(0), \"Ownable: new owner is the zero address\") */\n      tag_152\n      jumpi\n      mload(0x40)\n      shl(0xe5, 0x461bcd)\n      dup2\n      mstore\n      0x04\n      add\n      dup1\n      dup1\n      0x20\n      add\n      dup3\n      dup2\n      sub\n      dup3\n      mstore\n      0x26\n      dup2\n      mstore\n      0x20\n      add\n      dup1\n      data_245f15ff17f551913a7a18385165551503906a406f905ac1c2437281a7cd0cfe\n      0x26\n      swap2\n      codecopy\n      0x40\n      add\n      swap2\n      pop\n      pop\n      mload(0x40)\n      dup1\n      swap2\n      sub\n      swap1\n      revert\n    tag_152:\n        /* \"BEP20_flat.sol\":11288:11294  _owner */\n      0x00\n      dup1\n      sload\n        /* \"BEP20_flat.sol\":11267:11305  OwnershipTransferred(_owner, newOwner) */\n      mload(0x40)\n      sub(shl(0xa0, 0x01), 0x01)\n      dup1\n      dup6\n      and\n      swap4\n        /* \"BEP20_flat.sol\":11288:11294  _owner */\n      swap3\n      and\n      swap2\n        /* \"BEP20_flat.sol\":11267:11305  OwnershipTransferred(_owner, newOwner) */\n      0x8be0079c531659141344cd1fd0a4f28419497f9722a3daafe3b4186f6b6457e0\n      swap2\n      log3\n        /* \"BEP20_flat.sol\":11312:11318  _owner */\n      0x00\n        /* \"BEP20_flat.sol\":11312:11329  _owner = newOwner */\n      dup1\n      sload\n      not(sub(shl(0xa0, 0x01), 0x01))\n      and\n      sub(shl(0xa0, 0x01), 0x01)\n      swap3\n      swap1\n      swap3\n      and\n      swap2\n      swap1\n      swap2\n      or\n      swap1\n      sstore\n        /* \"BEP20_flat.sol\":11120:11335  function _transferOwnership(address newOwner) internal {\r... */\n      jump\t// out\n    stop\n    data_0d26cf302d50b28de74be656b11d67092b32131e5712d1bcf08c4e976dacda57 42455032303a207472616e736665722066726f6d20746865207a65726f2061646472657373\n    data_1441cfbef485de93bedecc35b3d10fa2992db382c4c9c583a6e423a140abe4a4 42455032303a20617070726f76652066726f6d20746865207a65726f2061646472657373\n    data_245f15ff17f551913a7a18385165551503906a406f905ac1c2437281a7cd0cfe 4f776e61626c653a206e6577206f776e657220697320746865207a65726f2061646472657373\n    data_4f3506f4ba71c79c3cbd442a3afeb30e9b27af2d84e116a4385b34e267d2287e 42455032303a207472616e7366657220616d6f756e74206578636565647320616c6c6f77616e6365\n    data_a91efd7a65ef5b4ae4d6568d674798b78a5a89184dd296c100513251c22d3e73 42455032303a207472616e7366657220616d6f756e7420657863656564732062616c616e6365\n    data_ade9efcb59e42e439ffe61509b352b1af56d64ccb68d80b039b7b69578f371d2 42455032303a207472616e7366657220746f20746865207a65726f2061646472657373\n    data_b7060b3538dcd3ddc8a941c91636a8115a1aa46914747fd9809d543bbb46cd22 42455032303a2064656372656173656420616c6c6f77616e63652062656c6f77207a65726f\n    data_f10e7571e18b354270dee950932fb6a745efc79414b2b2556185a4ed6a1af0d5 42455032303a20617070726f766520746f20746865207a65726f2061646472657373\n\n    auxdata: 0xa265627a7a7231582055ddb4394a5e31ecb1bfad9633cf381954b1ce44c10b8b5ffe29f3508b51ddf864736f6c63430005100032\n}\n",
				"bytecode": {
					"linkReferences": {},
					"object": "608060405234801561001057600080fd5b5060006100246001600160e01b0361013516565b600080546001600160a01b0319166001600160a01b0383169081178255604051929350917f8be0079c531659141344cd1fd0a4f28419497f9722a3daafe3b4186f6b6457e0908290a3506040518060600160405280602181526020016200103860219139805161009c9160069160209091019061013a565b50604080518082019091526005808252640464142c4b60dc1b60209092019182526100c7918161013a565b506004805460ff191660121790556b204fce5e3e250261100000006003819055336000818152600160209081526040808320859055805194855251929391927fddf252ad1be2c89b69c2b068fc378daa952ba7f163c4a11628f55a4df523b3ef9281900390910190a36101d2565b335b90565b828054600181600116156101000203166002900490600052602060002090601f016020900481019282601f1061017b57805160ff19168380011785556101a8565b828001600101855582156101a8579182015b828111156101a857825182559160200191906001019061018d565b506101b49291506101b8565b5090565b61013791905b808211156101b457600081556001016101be565b610e5680620001e26000396000f3fe608060405234801561001057600080fd5b50600436106101005760003560e01c8063893d20e811610097578063a457c2d711610066578063a457c2d7146102dd578063a9059cbb14610309578063dd62ed3e14610335578063f2fde38b1461036357610100565b8063893d20e81461028c5780638da5cb5b146102b057806395d89b41146102b8578063a0712d68146102c057610100565b8063313ce567116100d3578063313ce56714610212578063395093511461023057806370a082311461025c578063715018a61461028257610100565b806306fdde0314610105578063095ea7b31461018257806318160ddd146101c257806323b872dd146101dc575b600080fd5b61010d610389565b6040805160208082528351818301528351919283929083019185019080838360005b8381101561014757818101518382015260200161012f565b50505050905090810190601f1680156101745780820380516001836020036101000a031916815260200191505b509250505060405180910390f35b6101ae6004803603604081101561019857600080fd5b506001600160a01b03813516906020013561041f565b604080519115158252519081900360200190f35b6101ca61043c565b60408051918252519081900360200190f35b6101ae600480360360608110156101f257600080fd5b506001600160a01b03813581169160208101359091169060400135610442565b61021a6104cf565b6040805160ff9092168252519081900360200190f35b6101ae6004803603604081101561024657600080fd5b506001600160a01b0381351690602001356104d8565b6101ca6004803603602081101561027257600080fd5b50356001600160a01b031661052c565b61028a610547565b005b6102946105fb565b604080516001600160a01b039092168252519081900360200190f35b61029461060a565b61010d610619565b6101ae600480360360208110156102d657600080fd5b503561067a565b6101ae600480360360408110156102f357600080fd5b506001600160a01b0381351690602001356106ff565b6101ae6004803603604081101561031f57600080fd5b506001600160a01b03813516906020013561076d565b6101ca6004803603604081101561034b57600080fd5b506001600160a01b0381358116916020013516610781565b61028a6004803603602081101561037957600080fd5b50356001600160a01b03166107ac565b60068054604080516020601f60026000196101006001881615020190951694909404938401819004810282018101909252828152606093909290918301828280156104155780601f106103ea57610100808354040283529160200191610415565b820191906000526020600020905b8154815290600101906020018083116103f857829003601f168201915b5050505050905090565b600061043361042c610822565b8484610826565b50600192915050565b60035490565b600061044f848484610912565b6104c58461045b610822565b6104c085604051806060016040528060288152602001610d6a602891396001600160a01b038a16600090815260026020526040812090610499610822565b6001600160a01b03168152602081019190915260400160002054919063ffffffff610a7016565b610826565b5060019392505050565b60045460ff1690565b60006104336104e5610822565b846104c085600260006104f6610822565b6001600160a01b03908116825260208083019390935260409182016000908120918c16815292529020549063ffffffff610b0716565b6001600160a01b031660009081526001602052604090205490565b61054f610822565b6000546001600160a01b039081169116146105b1576040805162461bcd60e51b815260206004820181905260248201527f4f776e61626c653a2063616c6c6572206973206e6f7420746865206f776e6572604482015290519081900360640190fd5b600080546040516001600160a01b03909116907f8be0079c531659141344cd1fd0a4f28419497f9722a3daafe3b4186f6b6457e0908390a3600080546001600160a01b0319169055565b600061060561060a565b905090565b6000546001600160a01b031690565b60058054604080516020601f60026000196101006001881615020190951694909404938401819004810282018101909252828152606093909290918301828280156104155780601f106103ea57610100808354040283529160200191610415565b6000610684610822565b6000546001600160a01b039081169116146106e6576040805162461bcd60e51b815260206004820181905260248201527f4f776e61626c653a2063616c6c6572206973206e6f7420746865206f776e6572604482015290519081900360640190fd5b6106f76106f1610822565b83610b68565b506001919050565b600061043361070c610822565b846104c085604051806060016040528060258152602001610ddb6025913960026000610736610822565b6001600160a01b03908116825260208083019390935260409182016000908120918d1681529252902054919063ffffffff610a7016565b600061043361077a610822565b8484610912565b6001600160a01b03918216600090815260026020908152604080832093909416825291909152205490565b6107b4610822565b6000546001600160a01b03908116911614610816576040805162461bcd60e51b815260206004820181905260248201527f4f776e61626c653a2063616c6c6572206973206e6f7420746865206f776e6572604482015290519081900360640190fd5b61081f81610c5a565b50565b3390565b6001600160a01b03831661086b5760405162461bcd60e51b8152600401808060200182810382526024815260200180610d206024913960400191505060405180910390fd5b6001600160a01b0382166108b05760405162461bcd60e51b8152600401808060200182810382526022815260200180610e006022913960400191505060405180910390fd5b6001600160a01b03808416600081815260026020908152604080832094871680845294825291829020859055815185815291517f8c5be1e5ebec7d5bd14f71427d1e84f3dd0314c0f7b2291e5b200ac8c7c3b9259281900390910190a3505050565b6001600160a01b0383166109575760405162461bcd60e51b8152600401808060200182810382526025815260200180610cfb6025913960400191505060405180910390fd5b6001600160a01b03821661099c5760405162461bcd60e51b8152600401808060200182810382526023815260200180610db86023913960400191505060405180910390fd5b6109df81604051806060016040528060268152602001610d92602691396001600160a01b038616600090815260016020526040902054919063ffffffff610a7016565b6001600160a01b038085166000908152600160205260408082209390935590841681522054610a14908263ffffffff610b0716565b6001600160a01b0380841660008181526001602090815260409182902094909455805185815290519193928716927fddf252ad1be2c89b69c2b068fc378daa952ba7f163c4a11628f55a4df523b3ef92918290030190a3505050565b60008184841115610aff5760405162461bcd60e51b81526004018080602001828103825283818151815260200191508051906020019080838360005b83811015610ac4578181015183820152602001610aac565b50505050905090810190601f168015610af15780820380516001836020036101000a031916815260200191505b509250505060405180910390fd5b505050900390565b600082820183811015610b61576040805162461bcd60e51b815260206004820152601b60248201527f536166654d6174683a206164646974696f6e206f766572666c6f770000000000604482015290519081900360640190fd5b9392505050565b6001600160a01b038216610bc3576040805162461bcd60e51b815260206004820152601f60248201527f42455032303a206d696e7420746f20746865207a65726f206164647265737300604482015290519081900360640190fd5b600354610bd6908263ffffffff610b0716565b6003556001600160a01b038216600090815260016020526040902054610c02908263ffffffff610b0716565b6001600160a01b03831660008181526001602090815260408083209490945583518581529351929391927fddf252ad1be2c89b69c2b068fc378daa952ba7f163c4a11628f55a4df523b3ef9281900390910190a35050565b6001600160a01b038116610c9f5760405162461bcd60e51b8152600401808060200182810382526026815260200180610d446026913960400191505060405180910390fd5b600080546040516001600160a01b03808516939216917f8be0079c531659141344cd1fd0a4f28419497f9722a3daafe3b4186f6b6457e091a3600080546001600160a01b0319166001600160a01b039290921691909117905556fe42455032303a207472616e736665722066726f6d20746865207a65726f206164647265737342455032303a20617070726f76652066726f6d20746865207a65726f20616464726573734f776e61626c653a206e6577206f776e657220697320746865207a65726f206164647265737342455032303a207472616e7366657220616d6f756e74206578636565647320616c6c6f77616e636542455032303a207472616e7366657220616d6f756e7420657863656564732062616c616e636542455032303a207472616e7366657220746f20746865207a65726f206164647265737342455032303a2064656372656173656420616c6c6f77616e63652062656c6f77207a65726f42455032303a20617070726f766520746f20746865207a65726f2061646472657373a265627a7a7231582055ddb4394a5e31ecb1bfad9633cf381954b1ce44c10b8b5ffe29f3508b51ddf864736f6c63430005100032466f6f6420416e6420426576657261676520c4b06e64757374727920546f6b656e",
					"opcodes": "PUSH1 0x80 PUSH1 0x40 MSTORE CALLVALUE DUP1 ISZERO PUSH2 0x10 JUMPI PUSH1 0x0 DUP1 REVERT JUMPDEST POP PUSH1 0x0 PUSH2 0x24 PUSH1 0x1 PUSH1 0x1 PUSH1 0xE0 SHL SUB PUSH2 0x135 AND JUMP JUMPDEST PUSH1 0x0 DUP1 SLOAD PUSH1 0x1 PUSH1 0x1 PUSH1 0xA0 SHL SUB NOT AND PUSH1 0x1 PUSH1 0x1 PUSH1 0xA0 SHL SUB DUP4 AND SWAP1 DUP2 OR DUP3 SSTORE PUSH1 0x40 MLOAD SWAP3 SWAP4 POP SWAP2 PUSH32 0x8BE0079C531659141344CD1FD0A4F28419497F9722A3DAAFE3B4186F6B6457E0 SWAP1 DUP3 SWAP1 LOG3 POP PUSH1 0x40 MLOAD DUP1 PUSH1 0x60 ADD PUSH1 0x40 MSTORE DUP1 PUSH1 0x21 DUP2 MSTORE PUSH1 0x20 ADD PUSH3 0x1038 PUSH1 0x21 SWAP2 CODECOPY DUP1 MLOAD PUSH2 0x9C SWAP2 PUSH1 0x6 SWAP2 PUSH1 0x20 SWAP1 SWAP2 ADD SWAP1 PUSH2 0x13A JUMP JUMPDEST POP PUSH1 0x40 DUP1 MLOAD DUP1 DUP3 ADD SWAP1 SWAP2 MSTORE PUSH1 0x5 DUP1 DUP3 MSTORE PUSH5 0x464142C4B PUSH1 0xDC SHL PUSH1 0x20 SWAP1 SWAP3 ADD SWAP2 DUP3 MSTORE PUSH2 0xC7 SWAP2 DUP2 PUSH2 0x13A JUMP JUMPDEST POP PUSH1 0x4 DUP1 SLOAD PUSH1 0xFF NOT AND PUSH1 0x12 OR SWAP1 SSTORE PUSH12 0x204FCE5E3E25026110000000 PUSH1 0x3 DUP2 SWAP1 SSTORE CALLER PUSH1 0x0 DUP2 DUP2 MSTORE PUSH1 0x1 PUSH1 0x20 SWAP1 DUP2 MSTORE PUSH1 0x40 DUP1 DUP4 KECCAK256 DUP6 SWAP1 SSTORE DUP1 MLOAD SWAP5 DUP6 MSTORE MLOAD SWAP3 SWAP4 SWAP2 SWAP3 PUSH32 0xDDF252AD1BE2C89B69C2B068FC378DAA952BA7F163C4A11628F55A4DF523B3EF SWAP3 DUP2 SWAP1 SUB SWAP1 SWAP2 ADD SWAP1 LOG3 PUSH2 0x1D2 JUMP JUMPDEST CALLER JUMPDEST SWAP1 JUMP JUMPDEST DUP3 DUP1 SLOAD PUSH1 0x1 DUP2 PUSH1 0x1 AND ISZERO PUSH2 0x100 MUL SUB AND PUSH1 0x2 SWAP1 DIV SWAP1 PUSH1 0x0 MSTORE PUSH1 0x20 PUSH1 0x0 KECCAK256 SWAP1 PUSH1 0x1F ADD PUSH1 0x20 SWAP1 DIV DUP2 ADD SWAP3 DUP3 PUSH1 0x1F LT PUSH2 0x17B JUMPI DUP1 MLOAD PUSH1 0xFF NOT AND DUP4 DUP1 ADD OR DUP6 SSTORE PUSH2 0x1A8 JUMP JUMPDEST DUP3 DUP1 ADD PUSH1 0x1 ADD DUP6 SSTORE DUP3 ISZERO PUSH2 0x1A8 JUMPI SWAP2 DUP3 ADD JUMPDEST DUP3 DUP2 GT ISZERO PUSH2 0x1A8 JUMPI DUP3 MLOAD DUP3 SSTORE SWAP2 PUSH1 0x20 ADD SWAP2 SWAP1 PUSH1 0x1 ADD SWAP1 PUSH2 0x18D JUMP JUMPDEST POP PUSH2 0x1B4 SWAP3 SWAP2 POP PUSH2 0x1B8 JUMP JUMPDEST POP SWAP1 JUMP JUMPDEST PUSH2 0x137 SWAP2 SWAP1 JUMPDEST DUP1 DUP3 GT ISZERO PUSH2 0x1B4 JUMPI PUSH1 0x0 DUP2 SSTORE PUSH1 0x1 ADD PUSH2 0x1BE JUMP JUMPDEST PUSH2 0xE56 DUP1 PUSH3 0x1E2 PUSH1 0x0 CODECOPY PUSH1 0x0 RETURN INVALID PUSH1 0x80 PUSH1 0x40 MSTORE CALLVALUE DUP1 ISZERO PUSH2 0x10 JUMPI PUSH1 0x0 DUP1 REVERT JUMPDEST POP PUSH1 0x4 CALLDATASIZE LT PUSH2 0x100 JUMPI PUSH1 0x0 CALLDATALOAD PUSH1 0xE0 SHR DUP1 PUSH4 0x893D20E8 GT PUSH2 0x97 JUMPI DUP1 PUSH4 0xA457C2D7 GT PUSH2 0x66 JUMPI DUP1 PUSH4 0xA457C2D7 EQ PUSH2 0x2DD JUMPI DUP1 PUSH4 0xA9059CBB EQ PUSH2 0x309 JUMPI DUP1 PUSH4 0xDD62ED3E EQ PUSH2 0x335 JUMPI DUP1 PUSH4 0xF2FDE38B EQ PUSH2 0x363 JUMPI PUSH2 0x100 JUMP JUMPDEST DUP1 PUSH4 0x893D20E8 EQ PUSH2 0x28C JUMPI DUP1 PUSH4 0x8DA5CB5B EQ PUSH2 0x2B0 JUMPI DUP1 PUSH4 0x95D89B41 EQ PUSH2 0x2B8 JUMPI DUP1 PUSH4 0xA0712D68 EQ PUSH2 0x2C0 JUMPI PUSH2 0x100 JUMP JUMPDEST DUP1 PUSH4 0x313CE567 GT PUSH2 0xD3 JUMPI DUP1 PUSH4 0x313CE567 EQ PUSH2 0x212 JUMPI DUP1 PUSH4 0x39509351 EQ PUSH2 0x230 JUMPI DUP1 PUSH4 0x70A08231 EQ PUSH2 0x25C JUMPI DUP1 PUSH4 0x715018A6 EQ PUSH2 0x282 JUMPI PUSH2 0x100 JUMP JUMPDEST DUP1 PUSH4 0x6FDDE03 EQ PUSH2 0x105 JUMPI DUP1 PUSH4 0x95EA7B3 EQ PUSH2 0x182 JUMPI DUP1 PUSH4 0x18160DDD EQ PUSH2 0x1C2 JUMPI DUP1 PUSH4 0x23B872DD EQ PUSH2 0x1DC JUMPI JUMPDEST PUSH1 0x0 DUP1 REVERT JUMPDEST PUSH2 0x10D PUSH2 0x389 JUMP JUMPDEST PUSH1 0x40 DUP1 MLOAD PUSH1 0x20 DUP1 DUP3 MSTORE DUP4 MLOAD DUP2 DUP4 ADD MSTORE DUP4 MLOAD SWAP2 SWAP3 DUP4 SWAP3 SWAP1 DUP4 ADD SWAP2 DUP6 ADD SWAP1 DUP1 DUP4 DUP4 PUSH1 0x0 JUMPDEST DUP4 DUP2 LT ISZERO PUSH2 0x147 JUMPI DUP2 DUP2 ADD MLOAD DUP4 DUP3 ADD MSTORE PUSH1 0x20 ADD PUSH2 0x12F JUMP JUMPDEST POP POP POP POP SWAP1 POP SWAP1 DUP2 ADD SWAP1 PUSH1 0x1F AND DUP1 ISZERO PUSH2 0x174 JUMPI DUP1 DUP3 SUB DUP1 MLOAD PUSH1 0x1 DUP4 PUSH1 0x20 SUB PUSH2 0x100 EXP SUB NOT AND DUP2 MSTORE PUSH1 0x20 ADD SWAP2 POP JUMPDEST POP SWAP3 POP POP POP PUSH1 0x40 MLOAD DUP1 SWAP2 SUB SWAP1 RETURN JUMPDEST PUSH2 0x1AE PUSH1 0x4 DUP1 CALLDATASIZE SUB PUSH1 0x40 DUP2 LT ISZERO PUSH2 0x198 JUMPI PUSH1 0x0 DUP1 REVERT JUMPDEST POP PUSH1 0x1 PUSH1 0x1 PUSH1 0xA0 SHL SUB DUP2 CALLDATALOAD AND SWAP1 PUSH1 0x20 ADD CALLDATALOAD PUSH2 0x41F JUMP JUMPDEST PUSH1 0x40 DUP1 MLOAD SWAP2 ISZERO ISZERO DUP3 MSTORE MLOAD SWAP1 DUP2 SWAP1 SUB PUSH1 0x20 ADD SWAP1 RETURN JUMPDEST PUSH2 0x1CA PUSH2 0x43C JUMP JUMPDEST PUSH1 0x40 DUP1 MLOAD SWAP2 DUP3 MSTORE MLOAD SWAP1 DUP2 SWAP1 SUB PUSH1 0x20 ADD SWAP1 RETURN JUMPDEST PUSH2 0x1AE PUSH1 0x4 DUP1 CALLDATASIZE SUB PUSH1 0x60 DUP2 LT ISZERO PUSH2 0x1F2 JUMPI PUSH1 0x0 DUP1 REVERT JUMPDEST POP PUSH1 0x1 PUSH1 0x1 PUSH1 0xA0 SHL SUB DUP2 CALLDATALOAD DUP2 AND SWAP2 PUSH1 0x20 DUP2 ADD CALLDATALOAD SWAP1 SWAP2 AND SWAP1 PUSH1 0x40 ADD CALLDATALOAD PUSH2 0x442 JUMP JUMPDEST PUSH2 0x21A PUSH2 0x4CF JUMP JUMPDEST PUSH1 0x40 DUP1 MLOAD PUSH1 0xFF SWAP1 SWAP3 AND DUP3 MSTORE MLOAD SWAP1 DUP2 SWAP1 SUB PUSH1 0x20 ADD SWAP1 RETURN JUMPDEST PUSH2 0x1AE PUSH1 0x4 DUP1 CALLDATASIZE SUB PUSH1 0x40 DUP2 LT ISZERO PUSH2 0x246 JUMPI PUSH1 0x0 DUP1 REVERT JUMPDEST POP PUSH1 0x1 PUSH1 0x1 PUSH1 0xA0 SHL SUB DUP2 CALLDATALOAD AND SWAP1 PUSH1 0x20 ADD CALLDATALOAD PUSH2 0x4D8 JUMP JUMPDEST PUSH2 0x1CA PUSH1 0x4 DUP1 CALLDATASIZE SUB PUSH1 0x20 DUP2 LT ISZERO PUSH2 0x272 JUMPI PUSH1 0x0 DUP1 REVERT JUMPDEST POP CALLDATALOAD PUSH1 0x1 PUSH1 0x1 PUSH1 0xA0 SHL SUB AND PUSH2 0x52C JUMP JUMPDEST PUSH2 0x28A PUSH2 0x547 JUMP JUMPDEST STOP JUMPDEST PUSH2 0x294 PUSH2 0x5FB JUMP JUMPDEST PUSH1 0x40 DUP1 MLOAD PUSH1 0x1 PUSH1 0x1 PUSH1 0xA0 SHL SUB SWAP1 SWAP3 AND DUP3 MSTORE MLOAD SWAP1 DUP2 SWAP1 SUB PUSH1 0x20 ADD SWAP1 RETURN JUMPDEST PUSH2 0x294 PUSH2 0x60A JUMP JUMPDEST PUSH2 0x10D PUSH2 0x619 JUMP JUMPDEST PUSH2 0x1AE PUSH1 0x4 DUP1 CALLDATASIZE SUB PUSH1 0x20 DUP2 LT ISZERO PUSH2 0x2D6 JUMPI PUSH1 0x0 DUP1 REVERT JUMPDEST POP CALLDATALOAD PUSH2 0x67A JUMP JUMPDEST PUSH2 0x1AE PUSH1 0x4 DUP1 CALLDATASIZE SUB PUSH1 0x40 DUP2 LT ISZERO PUSH2 0x2F3 JUMPI PUSH1 0x0 DUP1 REVERT JUMPDEST POP PUSH1 0x1 PUSH1 0x1 PUSH1 0xA0 SHL SUB DUP2 CALLDATALOAD AND SWAP1 PUSH1 0x20 ADD CALLDATALOAD PUSH2 0x6FF JUMP JUMPDEST PUSH2 0x1AE PUSH1 0x4 DUP1 CALLDATASIZE SUB PUSH1 0x40 DUP2 LT ISZERO PUSH2 0x31F JUMPI PUSH1 0x0 DUP1 REVERT JUMPDEST POP PUSH1 0x1 PUSH1 0x1 PUSH1 0xA0 SHL SUB DUP2 CALLDATALOAD AND SWAP1 PUSH1 0x20 ADD CALLDATALOAD PUSH2 0x76D JUMP JUMPDEST PUSH2 0x1CA PUSH1 0x4 DUP1 CALLDATASIZE SUB PUSH1 0x40 DUP2 LT ISZERO PUSH2 0x34B JUMPI PUSH1 0x0 DUP1 REVERT JUMPDEST POP PUSH1 0x1 PUSH1 0x1 PUSH1 0xA0 SHL SUB DUP2 CALLDATALOAD DUP2 AND SWAP2 PUSH1 0x20 ADD CALLDATALOAD AND PUSH2 0x781 JUMP JUMPDEST PUSH2 0x28A PUSH1 0x4 DUP1 CALLDATASIZE SUB PUSH1 0x20 DUP2 LT ISZERO PUSH2 0x379 JUMPI PUSH1 0x0 DUP1 REVERT JUMPDEST POP CALLDATALOAD PUSH1 0x1 PUSH1 0x1 PUSH1 0xA0 SHL SUB AND PUSH2 0x7AC JUMP JUMPDEST PUSH1 0x6 DUP1 SLOAD PUSH1 0x40 DUP1 MLOAD PUSH1 0x20 PUSH1 0x1F PUSH1 0x2 PUSH1 0x0 NOT PUSH2 0x100 PUSH1 0x1 DUP9 AND ISZERO MUL ADD SWAP1 SWAP6 AND SWAP5 SWAP1 SWAP5 DIV SWAP4 DUP5 ADD DUP2 SWAP1 DIV DUP2 MUL DUP3 ADD DUP2 ADD SWAP1 SWAP3 MSTORE DUP3 DUP2 MSTORE PUSH1 0x60 SWAP4 SWAP1 SWAP3 SWAP1 SWAP2 DUP4 ADD DUP3 DUP3 DUP1 ISZERO PUSH2 0x415 JUMPI DUP1 PUSH1 0x1F LT PUSH2 0x3EA JUMPI PUSH2 0x100 DUP1 DUP4 SLOAD DIV MUL DUP4 MSTORE SWAP2 PUSH1 0x20 ADD SWAP2 PUSH2 0x415 JUMP JUMPDEST DUP3 ADD SWAP2 SWAP1 PUSH1 0x0 MSTORE PUSH1 0x20 PUSH1 0x0 KECCAK256 SWAP1 JUMPDEST DUP2 SLOAD DUP2 MSTORE SWAP1 PUSH1 0x1 ADD SWAP1 PUSH1 0x20 ADD DUP1 DUP4 GT PUSH2 0x3F8 JUMPI DUP3 SWAP1 SUB PUSH1 0x1F AND DUP3 ADD SWAP2 JUMPDEST POP POP POP POP POP SWAP1 POP SWAP1 JUMP JUMPDEST PUSH1 0x0 PUSH2 0x433 PUSH2 0x42C PUSH2 0x822 JUMP JUMPDEST DUP5 DUP5 PUSH2 0x826 JUMP JUMPDEST POP PUSH1 0x1 SWAP3 SWAP2 POP POP JUMP JUMPDEST PUSH1 0x3 SLOAD SWAP1 JUMP JUMPDEST PUSH1 0x0 PUSH2 0x44F DUP5 DUP5 DUP5 PUSH2 0x912 JUMP JUMPDEST PUSH2 0x4C5 DUP5 PUSH2 0x45B PUSH2 0x822 JUMP JUMPDEST PUSH2 0x4C0 DUP6 PUSH1 0x40 MLOAD DUP1 PUSH1 0x60 ADD PUSH1 0x40 MSTORE DUP1 PUSH1 0x28 DUP2 MSTORE PUSH1 0x20 ADD PUSH2 0xD6A PUSH1 0x28 SWAP2 CODECOPY PUSH1 0x1 PUSH1 0x1 PUSH1 0xA0 SHL SUB DUP11 AND PUSH1 0x0 SWAP1 DUP2 MSTORE PUSH1 0x2 PUSH1 0x20 MSTORE PUSH1 0x40 DUP2 KECCAK256 SWAP1 PUSH2 0x499 PUSH2 0x822 JUMP JUMPDEST PUSH1 0x1 PUSH1 0x1 PUSH1 0xA0 SHL SUB AND DUP2 MSTORE PUSH1 0x20 DUP2 ADD SWAP2 SWAP1 SWAP2 MSTORE PUSH1 0x40 ADD PUSH1 0x0 KECCAK256 SLOAD SWAP2 SWAP1 PUSH4 0xFFFFFFFF PUSH2 0xA70 AND JUMP JUMPDEST PUSH2 0x826 JUMP JUMPDEST POP PUSH1 0x1 SWAP4 SWAP3 POP POP POP JUMP JUMPDEST PUSH1 0x4 SLOAD PUSH1 0xFF AND SWAP1 JUMP JUMPDEST PUSH1 0x0 PUSH2 0x433 PUSH2 0x4E5 PUSH2 0x822 JUMP JUMPDEST DUP5 PUSH2 0x4C0 DUP6 PUSH1 0x2 PUSH1 0x0 PUSH2 0x4F6 PUSH2 0x822 JUMP JUMPDEST PUSH1 0x1 PUSH1 0x1 PUSH1 0xA0 SHL SUB SWAP1 DUP2 AND DUP3 MSTORE PUSH1 0x20 DUP1 DUP4 ADD SWAP4 SWAP1 SWAP4 MSTORE PUSH1 0x40 SWAP2 DUP3 ADD PUSH1 0x0 SWAP1 DUP2 KECCAK256 SWAP2 DUP13 AND DUP2 MSTORE SWAP3 MSTORE SWAP1 KECCAK256 SLOAD SWAP1 PUSH4 0xFFFFFFFF PUSH2 0xB07 AND JUMP JUMPDEST PUSH1 0x1 PUSH1 0x1 PUSH1 0xA0 SHL SUB AND PUSH1 0x0 SWAP1 DUP2 MSTORE PUSH1 0x1 PUSH1 0x20 MSTORE PUSH1 0x40 SWAP1 KECCAK256 SLOAD SWAP1 JUMP JUMPDEST PUSH2 0x54F PUSH2 0x822 JUMP JUMPDEST PUSH1 0x0 SLOAD PUSH1 0x1 PUSH1 0x1 PUSH1 0xA0 SHL SUB SWAP1 DUP2 AND SWAP2 AND EQ PUSH2 0x5B1 JUMPI PUSH1 0x40 DUP1 MLOAD PUSH3 0x461BCD PUSH1 0xE5 SHL DUP2 MSTORE PUSH1 0x20 PUSH1 0x4 DUP3 ADD DUP2 SWAP1 MSTORE PUSH1 0x24 DUP3 ADD MSTORE PUSH32 0x4F776E61626C653A2063616C6C6572206973206E6F7420746865206F776E6572 PUSH1 0x44 DUP3 ADD MSTORE SWAP1 MLOAD SWAP1 DUP2 SWAP1 SUB PUSH1 0x64 ADD SWAP1 REVERT JUMPDEST PUSH1 0x0 DUP1 SLOAD PUSH1 0x40 MLOAD PUSH1 0x1 PUSH1 0x1 PUSH1 0xA0 SHL SUB SWAP1 SWAP2 AND SWAP1 PUSH32 0x8BE0079C531659141344CD1FD0A4F28419497F9722A3DAAFE3B4186F6B6457E0 SWAP1 DUP4 SWAP1 LOG3 PUSH1 0x0 DUP1 SLOAD PUSH1 0x1 PUSH1 0x1 PUSH1 0xA0 SHL SUB NOT AND SWAP1 SSTORE JUMP JUMPDEST PUSH1 0x0 PUSH2 0x605 PUSH2 0x60A JUMP JUMPDEST SWAP1 POP SWAP1 JUMP JUMPDEST PUSH1 0x0 SLOAD PUSH1 0x1 PUSH1 0x1 PUSH1 0xA0 SHL SUB AND SWAP1 JUMP JUMPDEST PUSH1 0x5 DUP1 SLOAD PUSH1 0x40 DUP1 MLOAD PUSH1 0x20 PUSH1 0x1F PUSH1 0x2 PUSH1 0x0 NOT PUSH2 0x100 PUSH1 0x1 DUP9 AND ISZERO MUL ADD SWAP1 SWAP6 AND SWAP5 SWAP1 SWAP5 DIV SWAP4 DUP5 ADD DUP2 SWAP1 DIV DUP2 MUL DUP3 ADD DUP2 ADD SWAP1 SWAP3 MSTORE DUP3 DUP2 MSTORE PUSH1 0x60 SWAP4 SWAP1 SWAP3 SWAP1 SWAP2 DUP4 ADD DUP3 DUP3 DUP1 ISZERO PUSH2 0x415 JUMPI DUP1 PUSH1 0x1F LT PUSH2 0x3EA JUMPI PUSH2 0x100 DUP1 DUP4 SLOAD DIV MUL DUP4 MSTORE SWAP2 PUSH1 0x20 ADD SWAP2 PUSH2 0x415 JUMP JUMPDEST PUSH1 0x0 PUSH2 0x684 PUSH2 0x822 JUMP JUMPDEST PUSH1 0x0 SLOAD PUSH1 0x1 PUSH1 0x1 PUSH1 0xA0 SHL SUB SWAP1 DUP2 AND SWAP2 AND EQ PUSH2 0x6E6 JUMPI PUSH1 0x40 DUP1 MLOAD PUSH3 0x461BCD PUSH1 0xE5 SHL DUP2 MSTORE PUSH1 0x20 PUSH1 0x4 DUP3 ADD DUP2 SWAP1 MSTORE PUSH1 0x24 DUP3 ADD MSTORE PUSH32 0x4F776E61626C653A2063616C6C6572206973206E6F7420746865206F776E6572 PUSH1 0x44 DUP3 ADD MSTORE SWAP1 MLOAD SWAP1 DUP2 SWAP1 SUB PUSH1 0x64 ADD SWAP1 REVERT JUMPDEST PUSH2 0x6F7 PUSH2 0x6F1 PUSH2 0x822 JUMP JUMPDEST DUP4 PUSH2 0xB68 JUMP JUMPDEST POP PUSH1 0x1 SWAP2 SWAP1 POP JUMP JUMPDEST PUSH1 0x0 PUSH2 0x433 PUSH2 0x70C PUSH2 0x822 JUMP JUMPDEST DUP5 PUSH2 0x4C0 DUP6 PUSH1 0x40 MLOAD DUP1 PUSH1 0x60 ADD PUSH1 0x40 MSTORE DUP1 PUSH1 0x25 DUP2 MSTORE PUSH1 0x20 ADD PUSH2 0xDDB PUSH1 0x25 SWAP2 CODECOPY PUSH1 0x2 PUSH1 0x0 PUSH2 0x736 PUSH2 0x822 JUMP JUMPDEST PUSH1 0x1 PUSH1 0x1 PUSH1 0xA0 SHL SUB SWAP1 DUP2 AND DUP3 MSTORE PUSH1 0x20 DUP1 DUP4 ADD SWAP4 SWAP1 SWAP4 MSTORE PUSH1 0x40 SWAP2 DUP3 ADD PUSH1 0x0 SWAP1 DUP2 KECCAK256 SWAP2 DUP14 AND DUP2 MSTORE SWAP3 MSTORE SWAP1 KECCAK256 SLOAD SWAP2 SWAP1 PUSH4 0xFFFFFFFF PUSH2 0xA70 AND JUMP JUMPDEST PUSH1 0x0 PUSH2 0x433 PUSH2 0x77A PUSH2 0x822 JUMP JUMPDEST DUP5 DUP5 PUSH2 0x912 JUMP JUMPDEST PUSH1 0x1 PUSH1 0x1 PUSH1 0xA0 SHL SUB SWAP2 DUP3 AND PUSH1 0x0 SWAP1 DUP2 MSTORE PUSH1 0x2 PUSH1 0x20 SWAP1 DUP2 MSTORE PUSH1 0x40 DUP1 DUP4 KECCAK256 SWAP4 SWAP1 SWAP5 AND DUP3 MSTORE SWAP2 SWAP1 SWAP2 MSTORE KECCAK256 SLOAD SWAP1 JUMP JUMPDEST PUSH2 0x7B4 PUSH2 0x822 JUMP JUMPDEST PUSH1 0x0 SLOAD PUSH1 0x1 PUSH1 0x1 PUSH1 0xA0 SHL SUB SWAP1 DUP2 AND SWAP2 AND EQ PUSH2 0x816 JUMPI PUSH1 0x40 DUP1 MLOAD PUSH3 0x461BCD PUSH1 0xE5 SHL DUP2 MSTORE PUSH1 0x20 PUSH1 0x4 DUP3 ADD DUP2 SWAP1 MSTORE PUSH1 0x24 DUP3 ADD MSTORE PUSH32 0x4F776E61626C653A2063616C6C6572206973206E6F7420746865206F776E6572 PUSH1 0x44 DUP3 ADD MSTORE SWAP1 MLOAD SWAP1 DUP2 SWAP1 SUB PUSH1 0x64 ADD SWAP1 REVERT JUMPDEST PUSH2 0x81F DUP2 PUSH2 0xC5A JUMP JUMPDEST POP JUMP JUMPDEST CALLER SWAP1 JUMP JUMPDEST PUSH1 0x1 PUSH1 0x1 PUSH1 0xA0 SHL SUB DUP4 AND PUSH2 0x86B JUMPI PUSH1 0x40 MLOAD PUSH3 0x461BCD PUSH1 0xE5 SHL DUP2 MSTORE PUSH1 0x4 ADD DUP1 DUP1 PUSH1 0x20 ADD DUP3 DUP2 SUB DUP3 MSTORE PUSH1 0x24 DUP2 MSTORE PUSH1 0x20 ADD DUP1 PUSH2 0xD20 PUSH1 0x24 SWAP2 CODECOPY PUSH1 0x40 ADD SWAP2 POP POP PUSH1 0x40 MLOAD DUP1 SWAP2 SUB SWAP1 REVERT JUMPDEST PUSH1 0x1 PUSH1 0x1 PUSH1 0xA0 SHL SUB DUP3 AND PUSH2 0x8B0 JUMPI PUSH1 0x40 MLOAD PUSH3 0x461BCD PUSH1 0xE5 SHL DUP2 MSTORE PUSH1 0x4 ADD DUP1 DUP1 PUSH1 0x20 ADD DUP3 DUP2 SUB DUP3 MSTORE PUSH1 0x22 DUP2 MSTORE PUSH1 0x20 ADD DUP1 PUSH2 0xE00 PUSH1 0x22 SWAP2 CODECOPY PUSH1 0x40 ADD SWAP2 POP POP PUSH1 0x40 MLOAD DUP1 SWAP2 SUB SWAP1 REVERT JUMPDEST PUSH1 0x1 PUSH1 0x1 PUSH1 0xA0 SHL SUB DUP1 DUP5 AND PUSH1 0x0 DUP2 DUP2 MSTORE PUSH1 0x2 PUSH1 0x20 SWAP1 DUP2 MSTORE PUSH1 0x40 DUP1 DUP4 KECCAK256 SWAP5 DUP8 AND DUP1 DUP5 MSTORE SWAP5 DUP3 MSTORE SWAP2 DUP3 SWAP1 KECCAK256 DUP6 SWAP1 SSTORE DUP2 MLOAD DUP6 DUP2 MSTORE SWAP2 MLOAD PUSH32 0x8C5BE1E5EBEC7D5BD14F71427D1E84F3DD0314C0F7B2291E5B200AC8C7C3B925 SWAP3 DUP2 SWAP1 SUB SWAP1 SWAP2 ADD SWAP1 LOG3 POP POP POP JUMP JUMPDEST PUSH1 0x1 PUSH1 0x1 PUSH1 0xA0 SHL SUB DUP4 AND PUSH2 0x957 JUMPI PUSH1 0x40 MLOAD PUSH3 0x461BCD PUSH1 0xE5 SHL DUP2 MSTORE PUSH1 0x4 ADD DUP1 DUP1 PUSH1 0x20 ADD DUP3 DUP2 SUB DUP3 MSTORE PUSH1 0x25 DUP2 MSTORE PUSH1 0x20 ADD DUP1 PUSH2 0xCFB PUSH1 0x25 SWAP2 CODECOPY PUSH1 0x40 ADD SWAP2 POP POP PUSH1 0x40 MLOAD DUP1 SWAP2 SUB SWAP1 REVERT JUMPDEST PUSH1 0x1 PUSH1 0x1 PUSH1 0xA0 SHL SUB DUP3 AND PUSH2 0x99C JUMPI PUSH1 0x40 MLOAD PUSH3 0x461BCD PUSH1 0xE5 SHL DUP2 MSTORE PUSH1 0x4 ADD DUP1 DUP1 PUSH1 0x20 ADD DUP3 DUP2 SUB DUP3 MSTORE PUSH1 0x23 DUP2 MSTORE PUSH1 0x20 ADD DUP1 PUSH2 0xDB8 PUSH1 0x23 SWAP2 CODECOPY PUSH1 0x40 ADD SWAP2 POP POP PUSH1 0x40 MLOAD DUP1 SWAP2 SUB SWAP1 REVERT JUMPDEST PUSH2 0x9DF DUP2 PUSH1 0x40 MLOAD DUP1 PUSH1 0x60 ADD PUSH1 0x40 MSTORE DUP1 PUSH1 0x26 DUP2 MSTORE PUSH1 0x20 ADD PUSH2 0xD92 PUSH1 0x26 SWAP2 CODECOPY PUSH1 0x1 PUSH1 0x1 PUSH1 0xA0 SHL SUB DUP7 AND PUSH1 0x0 SWAP1 DUP2 MSTORE PUSH1 0x1 PUSH1 0x20 MSTORE PUSH1 0x40 SWAP1 KECCAK256 SLOAD SWAP2 SWAP1 PUSH4 0xFFFFFFFF PUSH2 0xA70 AND JUMP JUMPDEST PUSH1 0x1 PUSH1 0x1 PUSH1 0xA0 SHL SUB DUP1 DUP6 AND PUSH1 0x0 SWAP1 DUP2 MSTORE PUSH1 0x1 PUSH1 0x20 MSTORE PUSH1 0x40 DUP1 DUP3 KECCAK256 SWAP4 SWAP1 SWAP4 SSTORE SWAP1 DUP5 AND DUP2 MSTORE KECCAK256 SLOAD PUSH2 0xA14 SWAP1 DUP3 PUSH4 0xFFFFFFFF PUSH2 0xB07 AND JUMP JUMPDEST PUSH1 0x1 PUSH1 0x1 PUSH1 0xA0 SHL SUB DUP1 DUP5 AND PUSH1 0x0 DUP2 DUP2 MSTORE PUSH1 0x1 PUSH1 0x20 SWAP1 DUP2 MSTORE PUSH1 0x40 SWAP2 DUP3 SWAP1 KECCAK256 SWAP5 SWAP1 SWAP5 SSTORE DUP1 MLOAD DUP6 DUP2 MSTORE SWAP1 MLOAD SWAP2 SWAP4 SWAP3 DUP8 AND SWAP3 PUSH32 0xDDF252AD1BE2C89B69C2B068FC378DAA952BA7F163C4A11628F55A4DF523B3EF SWAP3 SWAP2 DUP3 SWAP1 SUB ADD SWAP1 LOG3 POP POP POP JUMP JUMPDEST PUSH1 0x0 DUP2 DUP5 DUP5 GT ISZERO PUSH2 0xAFF JUMPI PUSH1 0x40 MLOAD PUSH3 0x461BCD PUSH1 0xE5 SHL DUP2 MSTORE PUSH1 0x4 ADD DUP1 DUP1 PUSH1 0x20 ADD DUP3 DUP2 SUB DUP3 MSTORE DUP4 DUP2 DUP2 MLOAD DUP2 MSTORE PUSH1 0x20 ADD SWAP2 POP DUP1 MLOAD SWAP1 PUSH1 0x20 ADD SWAP1 DUP1 DUP4 DUP4 PUSH1 0x0 JUMPDEST DUP4 DUP2 LT ISZERO PUSH2 0xAC4 JUMPI DUP2 DUP2 ADD MLOAD DUP4 DUP3 ADD MSTORE PUSH1 0x20 ADD PUSH2 0xAAC JUMP JUMPDEST POP POP POP POP SWAP1 POP SWAP1 DUP2 ADD SWAP1 PUSH1 0x1F AND DUP1 ISZERO PUSH2 0xAF1 JUMPI DUP1 DUP3 SUB DUP1 MLOAD PUSH1 0x1 DUP4 PUSH1 0x20 SUB PUSH2 0x100 EXP SUB NOT AND DUP2 MSTORE PUSH1 0x20 ADD SWAP2 POP JUMPDEST POP SWAP3 POP POP POP PUSH1 0x40 MLOAD DUP1 SWAP2 SUB SWAP1 REVERT JUMPDEST POP POP POP SWAP1 SUB SWAP1 JUMP JUMPDEST PUSH1 0x0 DUP3 DUP3 ADD DUP4 DUP2 LT ISZERO PUSH2 0xB61 JUMPI PUSH1 0x40 DUP1 MLOAD PUSH3 0x461BCD PUSH1 0xE5 SHL DUP2 MSTORE PUSH1 0x20 PUSH1 0x4 DUP3 ADD MSTORE PUSH1 0x1B PUSH1 0x24 DUP3 ADD MSTORE PUSH32 0x536166654D6174683A206164646974696F6E206F766572666C6F770000000000 PUSH1 0x44 DUP3 ADD MSTORE SWAP1 MLOAD SWAP1 DUP2 SWAP1 SUB PUSH1 0x64 ADD SWAP1 REVERT JUMPDEST SWAP4 SWAP3 POP POP POP JUMP JUMPDEST PUSH1 0x1 PUSH1 0x1 PUSH1 0xA0 SHL SUB DUP3 AND PUSH2 0xBC3 JUMPI PUSH1 0x40 DUP1 MLOAD PUSH3 0x461BCD PUSH1 0xE5 SHL DUP2 MSTORE PUSH1 0x20 PUSH1 0x4 DUP3 ADD MSTORE PUSH1 0x1F PUSH1 0x24 DUP3 ADD MSTORE PUSH32 0x42455032303A206D696E7420746F20746865207A65726F206164647265737300 PUSH1 0x44 DUP3 ADD MSTORE SWAP1 MLOAD SWAP1 DUP2 SWAP1 SUB PUSH1 0x64 ADD SWAP1 REVERT JUMPDEST PUSH1 0x3 SLOAD PUSH2 0xBD6 SWAP1 DUP3 PUSH4 0xFFFFFFFF PUSH2 0xB07 AND JUMP JUMPDEST PUSH1 0x3 SSTORE PUSH1 0x1 PUSH1 0x1 PUSH1 0xA0 SHL SUB DUP3 AND PUSH1 0x0 SWAP1 DUP2 MSTORE PUSH1 0x1 PUSH1 0x20 MSTORE PUSH1 0x40 SWAP1 KECCAK256 SLOAD PUSH2 0xC02 SWAP1 DUP3 PUSH4 0xFFFFFFFF PUSH2 0xB07 AND JUMP JUMPDEST PUSH1 0x1 PUSH1 0x1 PUSH1 0xA0 SHL SUB DUP4 AND PUSH1 0x0 DUP2 DUP2 MSTORE PUSH1 0x1 PUSH1 0x20 SWAP1 DUP2 MSTORE PUSH1 0x40 DUP1 DUP4 KECCAK256 SWAP5 SWAP1 SWAP5 SSTORE DUP4 MLOAD DUP6 DUP2 MSTORE SWAP4 MLOAD SWAP3 SWAP4 SWAP2 SWAP3 PUSH32 0xDDF252AD1BE2C89B69C2B068FC378DAA952BA7F163C4A11628F55A4DF523B3EF SWAP3 DUP2 SWAP1 SUB SWAP1 SWAP2 ADD SWAP1 LOG3 POP POP JUMP JUMPDEST PUSH1 0x1 PUSH1 0x1 PUSH1 0xA0 SHL SUB DUP2 AND PUSH2 0xC9F JUMPI PUSH1 0x40 MLOAD PUSH3 0x461BCD PUSH1 0xE5 SHL DUP2 MSTORE PUSH1 0x4 ADD DUP1 DUP1 PUSH1 0x20 ADD DUP3 DUP2 SUB DUP3 MSTORE PUSH1 0x26 DUP2 MSTORE PUSH1 0x20 ADD DUP1 PUSH2 0xD44 PUSH1 0x26 SWAP2 CODECOPY PUSH1 0x40 ADD SWAP2 POP POP PUSH1 0x40 MLOAD DUP1 SWAP2 SUB SWAP1 REVERT JUMPDEST PUSH1 0x0 DUP1 SLOAD PUSH1 0x40 MLOAD PUSH1 0x1 PUSH1 0x1 PUSH1 0xA0 SHL SUB DUP1 DUP6 AND SWAP4 SWAP3 AND SWAP2 PUSH32 0x8BE0079C531659141344CD1FD0A4F28419497F9722A3DAAFE3B4186F6B6457E0 SWAP2 LOG3 PUSH1 0x0 DUP1 SLOAD PUSH1 0x1 PUSH1 0x1 PUSH1 0xA0 SHL SUB NOT AND PUSH1 0x1 PUSH1 0x1 PUSH1 0xA0 SHL SUB SWAP3 SWAP1 SWAP3 AND SWAP2 SWAP1 SWAP2 OR SWAP1 SSTORE JUMP INVALID TIMESTAMP GASLIMIT POP ORIGIN ADDRESS GASPRICE KECCAK256 PUSH21 0x72616E736665722066726F6D20746865207A65726F KECCAK256 PUSH2 0x6464 PUSH19 0x65737342455032303A20617070726F76652066 PUSH19 0x6F6D20746865207A65726F2061646472657373 0x4F PUSH24 0x6E61626C653A206E6577206F776E65722069732074686520 PUSH27 0x65726F206164647265737342455032303A207472616E7366657220 PUSH2 0x6D6F PUSH22 0x6E74206578636565647320616C6C6F77616E63654245 POP ORIGIN ADDRESS GASPRICE KECCAK256 PUSH21 0x72616E7366657220616D6F756E7420657863656564 PUSH20 0x2062616C616E636542455032303A207472616E73 PUSH7 0x657220746F2074 PUSH9 0x65207A65726F206164 PUSH5 0x7265737342 GASLIMIT POP ORIGIN ADDRESS GASPRICE KECCAK256 PUSH5 0x6563726561 PUSH20 0x656420616C6C6F77616E63652062656C6F77207A PUSH6 0x726F42455032 ADDRESS GASPRICE KECCAK256 PUSH2 0x7070 PUSH19 0x6F766520746F20746865207A65726F20616464 PUSH19 0x657373A265627A7A7231582055DDB4394A5E31 0xEC 0xB1 0xBF 0xAD SWAP7 CALLER 0xCF CODESIZE NOT SLOAD 0xB1 0xCE DIFFICULTY 0xC1 SIGNEXTEND DUP12 0x5F INVALID 0x29 RETURN POP DUP12 MLOAD 0xDD 0xF8 PUSH5 0x736F6C6343 STOP SDIV LT STOP ORIGIN CHAINID PUSH16 0x6F6420416E6420426576657261676520 0xC4 0xB0 PUSH15 0x64757374727920546F6B656E000000 "
				},
				"gasEstimates": {
					"creation": {
						"codeDepositCost": "734000",
						"executionCost": "infinite",
						"totalCost": "infinite"
					},
					"external": {
						"allowance(address,address)": "1316",
						"approve(address,uint256)": "infinite",
						"balanceOf(address)": "1209",
						"decimals()": "1036",
						"decreaseAllowance(address,uint256)": "infinite",
						"getOwner()": "1095",
						"increaseAllowance(address,uint256)": "infinite",
						"mint(uint256)": "infinite",
						"name()": "infinite",
						"owner()": "1082",
						"renounceOwnership()": "24293",
						"symbol()": "infinite",
						"totalSupply()": "1066",
						"transfer(address,uint256)": "infinite",
						"transferFrom(address,address,uint256)": "infinite",
						"transferOwnership(address)": "infinite"
					},
					"internal": {
						"_approve(address,address,uint256)": "infinite",
						"_burn(address,uint256)": "infinite",
						"_burnFrom(address,uint256)": "infinite",
						"_mint(address,uint256)": "infinite",
						"_transfer(address,address,uint256)": "infinite"
					}
				},
				"methodIdentifiers": {
					"allowance(address,address)": "dd62ed3e",
					"approve(address,uint256)": "095ea7b3",
					"balanceOf(address)": "70a08231",
					"decimals()": "313ce567",
					"decreaseAllowance(address,uint256)": "a457c2d7",
					"getOwner()": "893d20e8",
					"increaseAllowance(address,uint256)": "39509351",
					"mint(uint256)": "a0712d68",
					"name()": "06fdde03",
					"owner()": "8da5cb5b",
					"renounceOwnership()": "715018a6",
					"symbol()": "95d89b41",
					"totalSupply()": "18160ddd",
					"transfer(address,uint256)": "a9059cbb",
					"transferFrom(address,address,uint256)": "23b872dd",
					"transferOwnership(address)": "f2fde38b"
				}
			},
			"userdoc": {
				"methods": {}
			}
		}
	}
}